{
  "_format": "hh-sol-artifact-1",
  "contractName": "GovernanceToken",
  "sourceName": "contracts/GovernanceToken.sol",
  "abi": [
    {
      "inputs": [
        {
          "internalType": "string",
          "name": "_name",
          "type": "string"
        },
        {
          "internalType": "string",
          "name": "_symbol",
          "type": "string"
        },
        {
          "internalType": "uint256",
          "name": "_initialSupply",
          "type": "uint256"
        },
        {
          "internalType": "address",
          "name": "_initialHolder",
          "type": "address"
        },
        {
          "internalType": "address",
          "name": "_initialOwner",
          "type": "address"
        }
      ],
      "stateMutability": "nonpayable",
      "type": "constructor"
    },
    {
      "inputs": [],
      "name": "CheckpointUnorderedInsertion",
      "type": "error"
    },
    {
      "inputs": [],
      "name": "ECDSAInvalidSignature",
      "type": "error"
    },
    {
      "inputs": [
        {
          "internalType": "uint256",
          "name": "length",
          "type": "uint256"
        }
      ],
      "name": "ECDSAInvalidSignatureLength",
      "type": "error"
    },
    {
      "inputs": [
        {
          "internalType": "bytes32",
          "name": "s",
          "type": "bytes32"
        }
      ],
      "name": "ECDSAInvalidSignatureS",
      "type": "error"
    },
    {
      "inputs": [
        {
          "internalType": "uint256",
          "name": "increasedSupply",
          "type": "uint256"
        },
        {
          "internalType": "uint256",
          "name": "cap",
          "type": "uint256"
        }
      ],
      "name": "ERC20ExceededSafeSupply",
      "type": "error"
    },
    {
      "inputs": [
        {
          "internalType": "address",
          "name": "spender",
          "type": "address"
        },
        {
          "internalType": "uint256",
          "name": "allowance",
          "type": "uint256"
        },
        {
          "internalType": "uint256",
          "name": "needed",
          "type": "uint256"
        }
      ],
      "name": "ERC20InsufficientAllowance",
      "type": "error"
    },
    {
      "inputs": [
        {
          "internalType": "address",
          "name": "sender",
          "type": "address"
        },
        {
          "internalType": "uint256",
          "name": "balance",
          "type": "uint256"
        },
        {
          "internalType": "uint256",
          "name": "needed",
          "type": "uint256"
        }
      ],
      "name": "ERC20InsufficientBalance",
      "type": "error"
    },
    {
      "inputs": [
        {
          "internalType": "address",
          "name": "approver",
          "type": "address"
        }
      ],
      "name": "ERC20InvalidApprover",
      "type": "error"
    },
    {
      "inputs": [
        {
          "internalType": "address",
          "name": "receiver",
          "type": "address"
        }
      ],
      "name": "ERC20InvalidReceiver",
      "type": "error"
    },
    {
      "inputs": [
        {
          "internalType": "address",
          "name": "sender",
          "type": "address"
        }
      ],
      "name": "ERC20InvalidSender",
      "type": "error"
    },
    {
      "inputs": [
        {
          "internalType": "address",
          "name": "spender",
          "type": "address"
        }
      ],
      "name": "ERC20InvalidSpender",
      "type": "error"
    },
    {
      "inputs": [
        {
          "internalType": "uint256",
          "name": "deadline",
          "type": "uint256"
        }
      ],
      "name": "ERC2612ExpiredSignature",
      "type": "error"
    },
    {
      "inputs": [
        {
          "internalType": "address",
          "name": "signer",
          "type": "address"
        },
        {
          "internalType": "address",
          "name": "owner",
          "type": "address"
        }
      ],
      "name": "ERC2612InvalidSigner",
      "type": "error"
    },
    {
      "inputs": [
        {
          "internalType": "uint256",
          "name": "timepoint",
          "type": "uint256"
        },
        {
          "internalType": "uint48",
          "name": "clock",
          "type": "uint48"
        }
      ],
      "name": "ERC5805FutureLookup",
      "type": "error"
    },
    {
      "inputs": [],
      "name": "ERC6372InconsistentClock",
      "type": "error"
    },
    {
      "inputs": [
        {
          "internalType": "address",
          "name": "account",
          "type": "address"
        },
        {
          "internalType": "uint256",
          "name": "currentNonce",
          "type": "uint256"
        }
      ],
      "name": "InvalidAccountNonce",
      "type": "error"
    },
    {
      "inputs": [],
      "name": "InvalidShortString",
      "type": "error"
    },
    {
      "inputs": [
        {
          "internalType": "address",
          "name": "owner",
          "type": "address"
        }
      ],
      "name": "OwnableInvalidOwner",
      "type": "error"
    },
    {
      "inputs": [
        {
          "internalType": "address",
          "name": "account",
          "type": "address"
        }
      ],
      "name": "OwnableUnauthorizedAccount",
      "type": "error"
    },
    {
      "inputs": [
        {
          "internalType": "uint8",
          "name": "bits",
          "type": "uint8"
        },
        {
          "internalType": "uint256",
          "name": "value",
          "type": "uint256"
        }
      ],
      "name": "SafeCastOverflowedUintDowncast",
      "type": "error"
    },
    {
      "inputs": [
        {
          "internalType": "string",
          "name": "str",
          "type": "string"
        }
      ],
      "name": "StringTooLong",
      "type": "error"
    },
    {
      "inputs": [
        {
          "internalType": "uint256",
          "name": "expiry",
          "type": "uint256"
        }
      ],
      "name": "VotesExpiredSignature",
      "type": "error"
    },
    {
      "anonymous": false,
      "inputs": [
        {
          "indexed": true,
          "internalType": "address",
          "name": "owner",
          "type": "address"
        },
        {
          "indexed": true,
          "internalType": "address",
          "name": "spender",
          "type": "address"
        },
        {
          "indexed": false,
          "internalType": "uint256",
          "name": "value",
          "type": "uint256"
        }
      ],
      "name": "Approval",
      "type": "event"
    },
    {
      "anonymous": false,
      "inputs": [
        {
          "indexed": true,
          "internalType": "address",
          "name": "delegator",
          "type": "address"
        },
        {
          "indexed": true,
          "internalType": "address",
          "name": "fromDelegate",
          "type": "address"
        },
        {
          "indexed": true,
          "internalType": "address",
          "name": "toDelegate",
          "type": "address"
        }
      ],
      "name": "DelegateChanged",
      "type": "event"
    },
    {
      "anonymous": false,
      "inputs": [
        {
          "indexed": true,
          "internalType": "address",
          "name": "delegate",
          "type": "address"
        },
        {
          "indexed": false,
          "internalType": "uint256",
          "name": "previousVotes",
          "type": "uint256"
        },
        {
          "indexed": false,
          "internalType": "uint256",
          "name": "newVotes",
          "type": "uint256"
        }
      ],
      "name": "DelegateVotesChanged",
      "type": "event"
    },
    {
      "anonymous": false,
      "inputs": [],
      "name": "EIP712DomainChanged",
      "type": "event"
    },
    {
      "anonymous": false,
      "inputs": [
        {
          "indexed": true,
          "internalType": "address",
          "name": "previousOwner",
          "type": "address"
        },
        {
          "indexed": true,
          "internalType": "address",
          "name": "newOwner",
          "type": "address"
        }
      ],
      "name": "OwnershipTransferred",
      "type": "event"
    },
    {
      "anonymous": false,
      "inputs": [
        {
          "indexed": true,
          "internalType": "address",
          "name": "from",
          "type": "address"
        },
        {
          "indexed": true,
          "internalType": "address",
          "name": "to",
          "type": "address"
        },
        {
          "indexed": false,
          "internalType": "uint256",
          "name": "value",
          "type": "uint256"
        }
      ],
      "name": "Transfer",
      "type": "event"
    },
    {
      "inputs": [],
      "name": "CLOCK_MODE",
      "outputs": [
        {
          "internalType": "string",
          "name": "",
          "type": "string"
        }
      ],
      "stateMutability": "view",
      "type": "function"
    },
    {
      "inputs": [],
      "name": "DOMAIN_SEPARATOR",
      "outputs": [
        {
          "internalType": "bytes32",
          "name": "",
          "type": "bytes32"
        }
      ],
      "stateMutability": "view",
      "type": "function"
    },
    {
      "inputs": [
        {
          "internalType": "address",
          "name": "owner",
          "type": "address"
        },
        {
          "internalType": "address",
          "name": "spender",
          "type": "address"
        }
      ],
      "name": "allowance",
      "outputs": [
        {
          "internalType": "uint256",
          "name": "",
          "type": "uint256"
        }
      ],
      "stateMutability": "view",
      "type": "function"
    },
    {
      "inputs": [
        {
          "internalType": "address",
          "name": "spender",
          "type": "address"
        },
        {
          "internalType": "uint256",
          "name": "value",
          "type": "uint256"
        }
      ],
      "name": "approve",
      "outputs": [
        {
          "internalType": "bool",
          "name": "",
          "type": "bool"
        }
      ],
      "stateMutability": "nonpayable",
      "type": "function"
    },
    {
      "inputs": [
        {
          "internalType": "address",
          "name": "account",
          "type": "address"
        }
      ],
      "name": "balanceOf",
      "outputs": [
        {
          "internalType": "uint256",
          "name": "",
          "type": "uint256"
        }
      ],
      "stateMutability": "view",
      "type": "function"
    },
    {
      "inputs": [
        {
          "internalType": "address",
          "name": "account",
          "type": "address"
        },
        {
          "internalType": "uint32",
          "name": "pos",
          "type": "uint32"
        }
      ],
      "name": "checkpoints",
      "outputs": [
        {
          "components": [
            {
              "internalType": "uint48",
              "name": "_key",
              "type": "uint48"
            },
            {
              "internalType": "uint208",
              "name": "_value",
              "type": "uint208"
            }
          ],
          "internalType": "struct Checkpoints.Checkpoint208",
          "name": "",
          "type": "tuple"
        }
      ],
      "stateMutability": "view",
      "type": "function"
    },
    {
      "inputs": [],
      "name": "clock",
      "outputs": [
        {
          "internalType": "uint48",
          "name": "",
          "type": "uint48"
        }
      ],
      "stateMutability": "view",
      "type": "function"
    },
    {
      "inputs": [],
      "name": "decimals",
      "outputs": [
        {
          "internalType": "uint8",
          "name": "",
          "type": "uint8"
        }
      ],
      "stateMutability": "view",
      "type": "function"
    },
    {
      "inputs": [
        {
          "internalType": "address",
          "name": "delegatee",
          "type": "address"
        }
      ],
      "name": "delegate",
      "outputs": [],
      "stateMutability": "nonpayable",
      "type": "function"
    },
    {
      "inputs": [
        {
          "internalType": "address",
          "name": "delegatee",
          "type": "address"
        },
        {
          "internalType": "uint256",
          "name": "nonce",
          "type": "uint256"
        },
        {
          "internalType": "uint256",
          "name": "expiry",
          "type": "uint256"
        },
        {
          "internalType": "uint8",
          "name": "v",
          "type": "uint8"
        },
        {
          "internalType": "bytes32",
          "name": "r",
          "type": "bytes32"
        },
        {
          "internalType": "bytes32",
          "name": "s",
          "type": "bytes32"
        }
      ],
      "name": "delegateBySig",
      "outputs": [],
      "stateMutability": "nonpayable",
      "type": "function"
    },
    {
      "inputs": [
        {
          "internalType": "address",
          "name": "account",
          "type": "address"
        }
      ],
      "name": "delegates",
      "outputs": [
        {
          "internalType": "address",
          "name": "",
          "type": "address"
        }
      ],
      "stateMutability": "view",
      "type": "function"
    },
    {
      "inputs": [],
      "name": "eip712Domain",
      "outputs": [
        {
          "internalType": "bytes1",
          "name": "fields",
          "type": "bytes1"
        },
        {
          "internalType": "string",
          "name": "name",
          "type": "string"
        },
        {
          "internalType": "string",
          "name": "version",
          "type": "string"
        },
        {
          "internalType": "uint256",
          "name": "chainId",
          "type": "uint256"
        },
        {
          "internalType": "address",
          "name": "verifyingContract",
          "type": "address"
        },
        {
          "internalType": "bytes32",
          "name": "salt",
          "type": "bytes32"
        },
        {
          "internalType": "uint256[]",
          "name": "extensions",
          "type": "uint256[]"
        }
      ],
      "stateMutability": "view",
      "type": "function"
    },
    {
      "inputs": [
        {
          "internalType": "uint256",
          "name": "timepoint",
          "type": "uint256"
        }
      ],
      "name": "getPastTotalSupply",
      "outputs": [
        {
          "internalType": "uint256",
          "name": "",
          "type": "uint256"
        }
      ],
      "stateMutability": "view",
      "type": "function"
    },
    {
      "inputs": [
        {
          "internalType": "address",
          "name": "account",
          "type": "address"
        },
        {
          "internalType": "uint256",
          "name": "timepoint",
          "type": "uint256"
        }
      ],
      "name": "getPastVotes",
      "outputs": [
        {
          "internalType": "uint256",
          "name": "",
          "type": "uint256"
        }
      ],
      "stateMutability": "view",
      "type": "function"
    },
    {
      "inputs": [
        {
          "internalType": "address",
          "name": "account",
          "type": "address"
        }
      ],
      "name": "getVotes",
      "outputs": [
        {
          "internalType": "uint256",
          "name": "",
          "type": "uint256"
        }
      ],
      "stateMutability": "view",
      "type": "function"
    },
    {
      "inputs": [
        {
          "internalType": "address",
          "name": "to",
          "type": "address"
        },
        {
          "internalType": "uint256",
          "name": "amount",
          "type": "uint256"
        }
      ],
      "name": "mint",
      "outputs": [],
      "stateMutability": "nonpayable",
      "type": "function"
    },
    {
      "inputs": [],
      "name": "name",
      "outputs": [
        {
          "internalType": "string",
          "name": "",
          "type": "string"
        }
      ],
      "stateMutability": "view",
      "type": "function"
    },
    {
      "inputs": [
        {
          "internalType": "address",
          "name": "owner",
          "type": "address"
        }
      ],
      "name": "nonces",
      "outputs": [
        {
          "internalType": "uint256",
          "name": "",
          "type": "uint256"
        }
      ],
      "stateMutability": "view",
      "type": "function"
    },
    {
      "inputs": [
        {
          "internalType": "address",
          "name": "account",
          "type": "address"
        }
      ],
      "name": "numCheckpoints",
      "outputs": [
        {
          "internalType": "uint32",
          "name": "",
          "type": "uint32"
        }
      ],
      "stateMutability": "view",
      "type": "function"
    },
    {
      "inputs": [],
      "name": "owner",
      "outputs": [
        {
          "internalType": "address",
          "name": "",
          "type": "address"
        }
      ],
      "stateMutability": "view",
      "type": "function"
    },
    {
      "inputs": [
        {
          "internalType": "address",
          "name": "owner",
          "type": "address"
        },
        {
          "internalType": "address",
          "name": "spender",
          "type": "address"
        },
        {
          "internalType": "uint256",
          "name": "value",
          "type": "uint256"
        },
        {
          "internalType": "uint256",
          "name": "deadline",
          "type": "uint256"
        },
        {
          "internalType": "uint8",
          "name": "v",
          "type": "uint8"
        },
        {
          "internalType": "bytes32",
          "name": "r",
          "type": "bytes32"
        },
        {
          "internalType": "bytes32",
          "name": "s",
          "type": "bytes32"
        }
      ],
      "name": "permit",
      "outputs": [],
      "stateMutability": "nonpayable",
      "type": "function"
    },
    {
      "inputs": [],
      "name": "renounceOwnership",
      "outputs": [],
      "stateMutability": "nonpayable",
      "type": "function"
    },
    {
      "inputs": [],
      "name": "symbol",
      "outputs": [
        {
          "internalType": "string",
          "name": "",
          "type": "string"
        }
      ],
      "stateMutability": "view",
      "type": "function"
    },
    {
      "inputs": [],
      "name": "totalSupply",
      "outputs": [
        {
          "internalType": "uint256",
          "name": "",
          "type": "uint256"
        }
      ],
      "stateMutability": "view",
      "type": "function"
    },
    {
      "inputs": [
        {
          "internalType": "address",
          "name": "to",
          "type": "address"
        },
        {
          "internalType": "uint256",
          "name": "value",
          "type": "uint256"
        }
      ],
      "name": "transfer",
      "outputs": [
        {
          "internalType": "bool",
          "name": "",
          "type": "bool"
        }
      ],
      "stateMutability": "nonpayable",
      "type": "function"
    },
    {
      "inputs": [
        {
          "internalType": "address",
          "name": "from",
          "type": "address"
        },
        {
          "internalType": "address",
          "name": "to",
          "type": "address"
        },
        {
          "internalType": "uint256",
          "name": "value",
          "type": "uint256"
        }
      ],
      "name": "transferFrom",
      "outputs": [
        {
          "internalType": "bool",
          "name": "",
          "type": "bool"
        }
      ],
      "stateMutability": "nonpayable",
      "type": "function"
    },
    {
      "inputs": [
        {
          "internalType": "address",
          "name": "newOwner",
          "type": "address"
        }
      ],
      "name": "transferOwnership",
      "outputs": [],
      "stateMutability": "nonpayable",
      "type": "function"
    }
  ],
  "bytecode": "0x61016060405234801561001157600080fd5b50604051612bb7380380612bb783398101604081905261003091610961565b808580604051806040016040528060018152602001603160f81b8152508888816003908161005e9190610a7d565b50600461006b8282610a7d565b5061007b91508390506005610174565b6101205261008a816006610174565b61014052815160208084019190912060e052815190820120610100524660a05261011760e05161010051604080517f8b73c3c69bb8fe3d512ecc4cf759cc79239f7b179b0ffacaa9a75d522b39400f60208201529081019290925260608201524660808201523060a082015260009060c00160405160208183030381529060405280519060200120905090565b60805250503060c052506001600160a01b03811661015057604051631e4fbdf760e01b8152600060048201526024015b60405180910390fd5b610159816101a7565b50821561016a5761016a82846101f9565b5050505050610c0c565b60006020835110156101905761018983610233565b90506101a1565b8161019b8482610a7d565b5060ff90505b92915050565b600b80546001600160a01b038381166001600160a01b0319831681179093556040519116919082907f8be0079c531659141344cd1fd0a4f28419497f9722a3daafe3b4186f6b6457e090600090a35050565b6001600160a01b0382166102235760405163ec442f0560e01b815260006004820152602401610147565b61022f60008383610271565b5050565b600080829050601f8151111561025e578260405163305a27a960e01b81526004016101479190610b3b565b805161026982610b6e565b179392505050565b61027c838383610281565b505050565b61028c8383836102e8565b6001600160a01b0383166102dd5760006102a560025490565b90506001600160d01b03808211156102da57604051630e58ae9360e11b81526004810183905260248101829052604401610147565b50505b61027c838383610412565b6001600160a01b0383166103135780600260008282546103089190610ba8565b909155506103859050565b6001600160a01b038316600090815260208190526040902054818110156103665760405163391434e360e21b81526001600160a01b03851660048201526024810182905260448101839052606401610147565b6001600160a01b03841660009081526020819052604090209082900390555b6001600160a01b0382166103a1576002805482900390556103c0565b6001600160a01b03821660009081526020819052604090208054820190555b816001600160a01b0316836001600160a01b03167fddf252ad1be2c89b69c2b068fc378daa952ba7f163c4a11628f55a4df523b3ef8360405161040591815260200190565b60405180910390a3505050565b6001600160a01b0383166104405761043d600a61094b61049b60201b17610438846104ae565b6104e6565b50505b6001600160a01b03821661046957610466600a61095761051c60201b17610438846104ae565b50505b6001600160a01b0383811660009081526008602052604080822054858416835291205461027c92918216911683610528565b60006104a78284610bbb565b9392505050565b60006001600160d01b038211156104e2576040516306dfcc6560e41b815260d0600482015260248101839052604401610147565b5090565b60008061050f6104f461067d565b6105076105008861068c565b868860201c565b8791906106d6565b915091505b935093915050565b60006104a78284610bda565b816001600160a01b0316836001600160a01b03161415801561054a5750600081115b1561027c576001600160a01b038316156105e4576001600160a01b038316600090815260096020908152604082208291610591919061051c901b61095717610438866104ae565b6001600160d01b031691506001600160d01b03169150846001600160a01b0316600080516020612b9783398151915283836040516105d9929190918252602082015260400190565b60405180910390a250505b6001600160a01b0382161561027c576001600160a01b038216600090815260096020908152604082208291610626919061049b901b61094b17610438866104ae565b6001600160d01b031691506001600160d01b03169150836001600160a01b0316600080516020612b97833981519152838360405161066e929190918252602082015260400190565b60405180910390a25050505050565b60006106876106e4565b905090565b805460009080156106cd576106b4836106a6600184610bf9565b600091825260209091200190565b54660100000000000090046001600160d01b03166104a7565b60009392505050565b60008061050f8585856106ef565b60006106874361084f565b8254600090819080156107f157600061070d876106a6600185610bf9565b805490915065ffffffffffff80821691660100000000000090046001600160d01b031690881682111561075357604051632520601d60e01b815260040160405180910390fd5b8765ffffffffffff168265ffffffffffff160361078f57825465ffffffffffff1666010000000000006001600160d01b038916021783556107e3565b6040805180820190915265ffffffffffff808a1682526001600160d01b03808a1660208085019182528d54600181018f5560008f815291909120945191519092166601000000000000029216919091179101555b945085935061051492505050565b50506040805180820190915265ffffffffffff80851682526001600160d01b0380851660208085019182528854600181018a5560008a8152918220955192519093166601000000000000029190931617920191909155905081610514565b600065ffffffffffff8211156104e2576040516306dfcc6560e41b81526030600482015260248101839052604401610147565b634e487b7160e01b600052604160045260246000fd5b60005b838110156108b357818101518382015260200161089b565b50506000910152565b600082601f8301126108cd57600080fd5b81516001600160401b038111156108e6576108e6610882565b604051601f8201601f19908116603f011681016001600160401b038111828210171561091457610914610882565b60405281815283820160200185101561092c57600080fd5b61093d826020830160208701610898565b949350505050565b80516001600160a01b038116811461095c57600080fd5b919050565b600080600080600060a0868803121561097957600080fd5b85516001600160401b0381111561098f57600080fd5b61099b888289016108bc565b602088015190965090506001600160401b038111156109b957600080fd5b6109c5888289016108bc565b945050604086015192506109db60608701610945565b91506109e960808701610945565b90509295509295909350565b600181811c90821680610a0957607f821691505b602082108103610a2957634e487b7160e01b600052602260045260246000fd5b50919050565b601f82111561027c57806000526020600020601f840160051c81016020851015610a565750805b601f840160051c820191505b81811015610a765760008155600101610a62565b5050505050565b81516001600160401b03811115610a9657610a96610882565b610aaa81610aa484546109f5565b84610a2f565b6020601f821160018114610ade5760008315610ac65750848201515b600019600385901b1c1916600184901b178455610a76565b600084815260208120601f198516915b82811015610b0e5787850151825560209485019460019092019101610aee565b5084821015610b2c5786840151600019600387901b60f8161c191681555b50505050600190811b01905550565b6020815260008251806020840152610b5a816040850160208701610898565b601f01601f19169190910160400192915050565b80516020808301519190811015610a295760001960209190910360031b1b16919050565b634e487b7160e01b600052601160045260246000fd5b808201808211156101a1576101a1610b92565b6001600160d01b0381811683821601908111156101a1576101a1610b92565b6001600160d01b0382811682821603908111156101a1576101a1610b92565b818103818111156101a1576101a1610b92565b60805160a05160c05160e051610100516101205161014051611f31610c666000396000610e2901526000610dfc01526000610b2d01526000610b0501526000610a6001526000610a8a01526000610ab40152611f316000f3fe608060405234801561001057600080fd5b50600436106101a95760003560e01c8063715018a6116100f95780639ab24eb011610097578063d505accf11610071578063d505accf146103bd578063dd62ed3e146103d0578063f1127ed814610409578063f2fde38b1461044857600080fd5b80639ab24eb014610384578063a9059cbb14610397578063c3cda520146103aa57600080fd5b80638da5cb5b116100d35780638da5cb5b146103395780638e539e8c1461034a57806391ddadf41461035d57806395d89b411461037c57600080fd5b8063715018a6146103035780637ecebe001461030b57806384b0196e1461031e57600080fd5b80633a46b1a811610166578063587cde1e11610140578063587cde1e1461025b5780635c19a95c1461029f5780636fcfff45146102b257806370a08231146102da57600080fd5b80633a46b1a81461022b57806340c10f191461023e5780634bf5d7e91461025357600080fd5b806306fdde03146101ae578063095ea7b3146101cc57806318160ddd146101ef57806323b872dd14610201578063313ce567146102145780633644e51514610223575b600080fd5b6101b661045b565b6040516101c39190611b3a565b60405180910390f35b6101df6101da366004611b69565b6104ed565b60405190151581526020016101c3565b6002545b6040519081526020016101c3565b6101df61020f366004611b93565b610507565b604051601281526020016101c3565b6101f361052b565b6101f3610239366004611b69565b61053a565b61025161024c366004611b69565b610576565b005b6101b661058c565b610287610269366004611bd0565b6001600160a01b039081166000908152600860205260409020541690565b6040516001600160a01b0390911681526020016101c3565b6102516102ad366004611bd0565b610604565b6102c56102c0366004611bd0565b61060f565b60405163ffffffff90911681526020016101c3565b6101f36102e8366004611bd0565b6001600160a01b031660009081526020819052604090205490565b61025161061a565b6101f3610319366004611bd0565b61062e565b610326610639565b6040516101c39796959493929190611beb565b600b546001600160a01b0316610287565b6101f3610358366004611c83565b61067f565b6103656106a4565b60405165ffffffffffff90911681526020016101c3565b6101b66106ae565b6101f3610392366004611bd0565b6106bd565b6101df6103a5366004611b69565b6106de565b6102516103b8366004611cad565b6106ec565b6102516103cb366004611d05565b6107ae565b6101f36103de366004611d70565b6001600160a01b03918216600090815260016020908152604080832093909416825291909152205490565b61041c610417366004611da3565b6108e8565b60408051825165ffffffffffff1681526020928301516001600160d01b031692810192909252016101c3565b610251610456366004611bd0565b61090d565b60606003805461046a90611de3565b80601f016020809104026020016040519081016040528092919081815260200182805461049690611de3565b80156104e35780601f106104b8576101008083540402835291602001916104e3565b820191906000526020600020905b8154815290600101906020018083116104c657829003601f168201915b5050505050905090565b6000336104fb818585610963565b60019150505b92915050565b600033610515858285610975565b6105208585856109f4565b506001949350505050565b6000610535610a53565b905090565b600061056661054883610b7e565b6001600160a01b038516600090815260096020526040902090610bcd565b6001600160d01b03169392505050565b61057e610c83565b6105888282610cb0565b5050565b6060610596610ce6565b65ffffffffffff166105a66106a4565b65ffffffffffff16146105cc576040516301bfc1c560e61b815260040160405180910390fd5b5060408051808201909152601d81527f6d6f64653d626c6f636b6e756d6265722666726f6d3d64656661756c74000000602082015290565b336105888183610cf1565b600061050182610d63565b610622610c83565b61062c6000610d85565b565b600061050182610dd7565b60006060806000806000606061064d610df5565b610655610e22565b60408051600080825260208201909252600f60f81b9b939a50919850469750309650945092509050565b600061069561068d83610b7e565b600a90610bcd565b6001600160d01b031692915050565b6000610535610ce6565b60606004805461046a90611de3565b6001600160a01b038116600090815260096020526040812061069590610e4f565b6000336104fb8185856109f4565b8342111561071557604051632341d78760e11b8152600481018590526024015b60405180910390fd5b604080517fe48329057bfd03d55e49b547132e39cffd9c1820ad7b9d4c5307691425d15adf60208201526001600160a01b03881691810191909152606081018690526080810185905260009061078f906107879060a00160405160208183030381529060405280519060200120610e88565b858585610eb5565b905061079b8187610ee3565b6107a58188610cf1565b50505050505050565b834211156107d25760405163313c898160e11b81526004810185905260240161070c565b60007f6e71edae12b1b97f4d1f60370fef10105fa2faae0126114a169c64845d6126c988888861081f8c6001600160a01b0316600090815260076020526040902080546001810190915590565b6040805160208101969096526001600160a01b0394851690860152929091166060840152608083015260a082015260c0810186905260e001604051602081830303815290604052805190602001209050600061087a82610e88565b9050600061088a82878787610eb5565b9050896001600160a01b0316816001600160a01b0316146108d1576040516325c0072360e11b81526001600160a01b0380831660048301528b16602482015260440161070c565b6108dc8a8a8a610963565b50505050505050505050565b60408051808201909152600080825260208201526109068383610f36565b9392505050565b610915610c83565b6001600160a01b03811661093f57604051631e4fbdf760e01b81526000600482015260240161070c565b61094881610d85565b50565b60006109068284611e33565b60006109068284611e52565b6109708383836001610f6c565b505050565b6001600160a01b038381166000908152600160209081526040808320938616835292905220546000198110156109ee57818110156109df57604051637dc7a0d960e11b81526001600160a01b0384166004820152602481018290526044810183905260640161070c565b6109ee84848484036000610f6c565b50505050565b6001600160a01b038316610a1e57604051634b637e8f60e11b81526000600482015260240161070c565b6001600160a01b038216610a485760405163ec442f0560e01b81526000600482015260240161070c565b610970838383611041565b6000306001600160a01b037f000000000000000000000000000000000000000000000000000000000000000016148015610aac57507f000000000000000000000000000000000000000000000000000000000000000046145b15610ad657507f000000000000000000000000000000000000000000000000000000000000000090565b610535604080517f8b73c3c69bb8fe3d512ecc4cf759cc79239f7b179b0ffacaa9a75d522b39400f60208201527f0000000000000000000000000000000000000000000000000000000000000000918101919091527f000000000000000000000000000000000000000000000000000000000000000060608201524660808201523060a082015260009060c00160405160208183030381529060405280519060200120905090565b600080610b896106a4565b90508065ffffffffffff168310610bc457604051637669fc0f60e11b81526004810184905265ffffffffffff8216602482015260440161070c565b6109068361104c565b815460009081816005811115610c2c576000610be884611083565b610bf29085611e71565b60008881526020902090915081015465ffffffffffff9081169087161015610c1c57809150610c2a565b610c27816001611e84565b92505b505b6000610c3a878785856111dc565b90508015610c7557610c5f87610c51600184611e71565b600091825260209091200190565b54600160301b90046001600160d01b0316610c78565b60005b979650505050505050565b600b546001600160a01b0316331461062c5760405163118cdaa760e01b815233600482015260240161070c565b6001600160a01b038216610cda5760405163ec442f0560e01b81526000600482015260240161070c565b61058860008383611041565b60006105354361104c565b6001600160a01b0382811660008181526008602052604080822080548686166001600160a01b0319821681179092559151919094169392849290917f3134e8a2e6d97e929a7e54011ea5485d7d196dd5f0ba4d4ef95803e8e3fc257f9190a46109708183610d5e8661123e565b61125c565b6001600160a01b038116600090815260096020526040812054610501906113c8565b600b80546001600160a01b038381166001600160a01b0319831681179093556040519116919082907f8be0079c531659141344cd1fd0a4f28419497f9722a3daafe3b4186f6b6457e090600090a35050565b6001600160a01b038116600090815260076020526040812054610501565b60606105357f000000000000000000000000000000000000000000000000000000000000000060056113f9565b60606105357f000000000000000000000000000000000000000000000000000000000000000060066113f9565b80546000908015610e7f57610e6983610c51600184611e71565b54600160301b90046001600160d01b0316610906565b60009392505050565b6000610501610e95610a53565b8360405161190160f01b8152600281019290925260228201526042902090565b600080600080610ec7888888886114a4565b925092509250610ed78282611573565b50909695505050505050565b6001600160a01b0382166000908152600760205260409020805460018101909155818114610970576040516301d4b62360e61b81526001600160a01b03841660048201526024810182905260440161070c565b60408051808201909152600080825260208201526001600160a01b0383166000908152600960205260409020610906908361162c565b6001600160a01b038416610f965760405163e602df0560e01b81526000600482015260240161070c565b6001600160a01b038316610fc057604051634a1406b160e11b81526000600482015260240161070c565b6001600160a01b03808516600090815260016020908152604080832093871683529290522082905580156109ee57826001600160a01b0316846001600160a01b03167f8c5be1e5ebec7d5bd14f71427d1e84f3dd0314c0f7b2291e5b200ac8c7c3b9258460405161103391815260200190565b60405180910390a350505050565b61097083838361169c565b600065ffffffffffff82111561107f576040516306dfcc6560e41b8152603060048201526024810183905260440161070c565b5090565b600060018211611091575090565b816001600160801b82106110aa5760809190911c9060401b5b6801000000000000000082106110c55760409190911c9060201b5b64010000000082106110dc5760209190911c9060101b5b6201000082106110f15760109190911c9060081b5b61010082106111055760089190911c9060041b5b601082106111185760049190911c9060021b5b600482106111245760011b5b600302600190811c9081858161113c5761113c611e97565b048201901c9050600181858161115457611154611e97565b048201901c9050600181858161116c5761116c611e97565b048201901c9050600181858161118457611184611e97565b048201901c9050600181858161119c5761119c611e97565b048201901c905060018185816111b4576111b4611e97565b048201901c90506111d38185816111cd576111cd611e97565b04821190565b90039392505050565b60005b818310156112365760006111f38484611703565b60008781526020902090915065ffffffffffff86169082015465ffffffffffff16111561122257809250611230565b61122d816001611e84565b93505b506111df565b509392505050565b6001600160a01b038116600090815260208190526040812054610501565b816001600160a01b0316836001600160a01b03161415801561127e5750600081115b15610970576001600160a01b03831615611326576001600160a01b038316600090815260096020526040812081906112c1906109576112bc8661171e565b611752565b6001600160d01b031691506001600160d01b03169150846001600160a01b03167fdec2bacdd2f05b59de34da9b523dff8be42e5e38e818c82fdb0bae774387a724838360405161131b929190918252602082015260400190565b60405180910390a250505b6001600160a01b03821615610970576001600160a01b0382166000908152600960205260408120819061135f9061094b6112bc8661171e565b6001600160d01b031691506001600160d01b03169150836001600160a01b03167fdec2bacdd2f05b59de34da9b523dff8be42e5e38e818c82fdb0bae774387a72483836040516113b9929190918252602082015260400190565b60405180910390a25050505050565b600063ffffffff82111561107f576040516306dfcc6560e41b8152602060048201526024810183905260440161070c565b606060ff83146114135761140c8361178b565b9050610501565b81805461141f90611de3565b80601f016020809104026020016040519081016040528092919081815260200182805461144b90611de3565b80156114985780601f1061146d57610100808354040283529160200191611498565b820191906000526020600020905b81548152906001019060200180831161147b57829003601f168201915b50505050509050610501565b600080807f7fffffffffffffffffffffffffffffff5d576e7357a4501ddfe92f46681b20a08411156114df5750600091506003905082611569565b604080516000808252602082018084528a905260ff891692820192909252606081018790526080810186905260019060a0016020604051602081039080840390855afa158015611533573d6000803e3d6000fd5b5050604051601f1901519150506001600160a01b03811661155f57506000925060019150829050611569565b9250600091508190505b9450945094915050565b600082600381111561158757611587611ead565b03611590575050565b60018260038111156115a4576115a4611ead565b036115c25760405163f645eedf60e01b815260040160405180910390fd5b60028260038111156115d6576115d6611ead565b036115f75760405163fce698f760e01b81526004810182905260240161070c565b600382600381111561160b5761160b611ead565b03610588576040516335e2f38360e21b81526004810182905260240161070c565b6040805180820190915260008082526020820152826000018263ffffffff168154811061165b5761165b611ec3565b60009182526020918290206040805180820190915291015465ffffffffffff81168252600160301b90046001600160d01b0316918101919091529392505050565b6116a78383836117ca565b6001600160a01b0383166116f85760006116c060025490565b90506001600160d01b03808211156116f557604051630e58ae9360e11b8152600481018390526024810182905260440161070c565b50505b6109708383836118f4565b60006117126002848418611ed9565b61090690848416611e84565b60006001600160d01b0382111561107f576040516306dfcc6560e41b815260d060048201526024810183905260440161070c565b60008061177e6117606106a4565b61177661176c88610e4f565b868863ffffffff16565b87919061196a565b915091505b935093915050565b6060600061179883611978565b604080516020808252818301909252919250600091906020820181803683375050509182525060208101929092525090565b6001600160a01b0383166117f55780600260008282546117ea9190611e84565b909155506118679050565b6001600160a01b038316600090815260208190526040902054818110156118485760405163391434e360e21b81526001600160a01b0385166004820152602481018290526044810183905260640161070c565b6001600160a01b03841660009081526020819052604090209082900390555b6001600160a01b038216611883576002805482900390556118a2565b6001600160a01b03821660009081526020819052604090208054820190555b816001600160a01b0316836001600160a01b03167fddf252ad1be2c89b69c2b068fc378daa952ba7f163c4a11628f55a4df523b3ef836040516118e791815260200190565b60405180910390a3505050565b6001600160a01b03831661191657611913600a61094b6112bc8461171e565b50505b6001600160a01b03821661193857611935600a6109576112bc8461171e565b50505b6001600160a01b038381166000908152600860205260408082205485841683529120546109709291821691168361125c565b60008061177e8585856119a0565b600060ff8216601f81111561050157604051632cd44ac360e21b815260040160405180910390fd5b825460009081908015611a995760006119be87610c51600185611e71565b805490915065ffffffffffff80821691600160301b90046001600160d01b0316908816821115611a0157604051632520601d60e01b815260040160405180910390fd5b8765ffffffffffff168265ffffffffffff1603611a3a57825465ffffffffffff16600160301b6001600160d01b03891602178355611a8b565b6040805180820190915265ffffffffffff808a1682526001600160d01b03808a1660208085019182528d54600181018f5560008f81529190912094519151909216600160301b029216919091179101555b945085935061178392505050565b50506040805180820190915265ffffffffffff80851682526001600160d01b0380851660208085019182528854600181018a5560008a815291822095519251909316600160301b029190931617920191909155905081611783565b6000815180845260005b81811015611b1a57602081850181015186830182015201611afe565b506000602082860101526020601f19601f83011685010191505092915050565b6020815260006109066020830184611af4565b80356001600160a01b0381168114611b6457600080fd5b919050565b60008060408385031215611b7c57600080fd5b611b8583611b4d565b946020939093013593505050565b600080600060608486031215611ba857600080fd5b611bb184611b4d565b9250611bbf60208501611b4d565b929592945050506040919091013590565b600060208284031215611be257600080fd5b61090682611b4d565b60ff60f81b8816815260e060208201526000611c0a60e0830189611af4565b8281036040840152611c1c8189611af4565b606084018890526001600160a01b038716608085015260a0840186905283810360c08501528451808252602080870193509091019060005b81811015611c72578351835260209384019390920191600101611c54565b50909b9a5050505050505050505050565b600060208284031215611c9557600080fd5b5035919050565b803560ff81168114611b6457600080fd5b60008060008060008060c08789031215611cc657600080fd5b611ccf87611b4d565b95506020870135945060408701359350611ceb60608801611c9c565b9598949750929560808101359460a0909101359350915050565b600080600080600080600060e0888a031215611d2057600080fd5b611d2988611b4d565b9650611d3760208901611b4d565b95506040880135945060608801359350611d5360808901611c9c565b9699959850939692959460a0840135945060c09093013592915050565b60008060408385031215611d8357600080fd5b611d8c83611b4d565b9150611d9a60208401611b4d565b90509250929050565b60008060408385031215611db657600080fd5b611dbf83611b4d565b9150602083013563ffffffff81168114611dd857600080fd5b809150509250929050565b600181811c90821680611df757607f821691505b602082108103611e1757634e487b7160e01b600052602260045260246000fd5b50919050565b634e487b7160e01b600052601160045260246000fd5b6001600160d01b03818116838216019081111561050157610501611e1d565b6001600160d01b03828116828216039081111561050157610501611e1d565b8181038181111561050157610501611e1d565b8082018082111561050157610501611e1d565b634e487b7160e01b600052601260045260246000fd5b634e487b7160e01b600052602160045260246000fd5b634e487b7160e01b600052603260045260246000fd5b600082611ef657634e487b7160e01b600052601260045260246000fd5b50049056fea2646970667358221220ab8f66d75ae92817a485708f683faf4aa271fbc9de4b0142e18f731b1ddedf7a64736f6c634300081c0033dec2bacdd2f05b59de34da9b523dff8be42e5e38e818c82fdb0bae774387a724",
  "linkReferences": {},
  "deployedLinkReferences": {}
}