{
  "_format": "hh-sol-artifact-1",
  "contractName": "MyGovernor",
  "sourceName": "contracts/MyGovernor.sol",
  "abi": [
    {
      "inputs": [
        {
          "internalType": "contract IVotes",
          "name": "_token",
          "type": "address"
        },
        {
          "internalType": "contract TimelockController",
          "name": "_timelock",
          "type": "address"
        },
        {
          "internalType": "uint256",
          "name": "_votingDelay",
          "type": "uint256"
        },
        {
          "internalType": "uint256",
          "name": "_votingPeriod",
          "type": "uint256"
        },
        {
          "internalType": "uint256",
          "name": "_proposalThreshold",
          "type": "uint256"
        },
        {
          "internalType": "uint256",
          "name": "_quorumPercentage",
          "type": "uint256"
        }
      ],
      "stateMutability": "nonpayable",
      "type": "constructor"
    },
    {
      "inputs": [],
      "name": "CheckpointUnorderedInsertion",
      "type": "error"
    },
    {
      "inputs": [],
      "name": "FailedCall",
      "type": "error"
    },
    {
      "inputs": [
        {
          "internalType": "address",
          "name": "voter",
          "type": "address"
        }
      ],
      "name": "GovernorAlreadyCastVote",
      "type": "error"
    },
    {
      "inputs": [
        {
          "internalType": "uint256",
          "name": "proposalId",
          "type": "uint256"
        }
      ],
      "name": "GovernorAlreadyQueuedProposal",
      "type": "error"
    },
    {
      "inputs": [],
      "name": "GovernorDisabledDeposit",
      "type": "error"
    },
    {
      "inputs": [
        {
          "internalType": "address",
          "name": "proposer",
          "type": "address"
        },
        {
          "internalType": "uint256",
          "name": "votes",
          "type": "uint256"
        },
        {
          "internalType": "uint256",
          "name": "threshold",
          "type": "uint256"
        }
      ],
      "name": "GovernorInsufficientProposerVotes",
      "type": "error"
    },
    {
      "inputs": [
        {
          "internalType": "uint256",
          "name": "targets",
          "type": "uint256"
        },
        {
          "internalType": "uint256",
          "name": "calldatas",
          "type": "uint256"
        },
        {
          "internalType": "uint256",
          "name": "values",
          "type": "uint256"
        }
      ],
      "name": "GovernorInvalidProposalLength",
      "type": "error"
    },
    {
      "inputs": [
        {
          "internalType": "uint256",
          "name": "quorumNumerator",
          "type": "uint256"
        },
        {
          "internalType": "uint256",
          "name": "quorumDenominator",
          "type": "uint256"
        }
      ],
      "name": "GovernorInvalidQuorumFraction",
      "type": "error"
    },
    {
      "inputs": [
        {
          "internalType": "address",
          "name": "voter",
          "type": "address"
        }
      ],
      "name": "GovernorInvalidSignature",
      "type": "error"
    },
    {
      "inputs": [],
      "name": "GovernorInvalidVoteParams",
      "type": "error"
    },
    {
      "inputs": [],
      "name": "GovernorInvalidVoteType",
      "type": "error"
    },
    {
      "inputs": [
        {
          "internalType": "uint256",
          "name": "votingPeriod",
          "type": "uint256"
        }
      ],
      "name": "GovernorInvalidVotingPeriod",
      "type": "error"
    },
    {
      "inputs": [
        {
          "internalType": "uint256",
          "name": "proposalId",
          "type": "uint256"
        }
      ],
      "name": "GovernorNonexistentProposal",
      "type": "error"
    },
    {
      "inputs": [
        {
          "internalType": "uint256",
          "name": "proposalId",
          "type": "uint256"
        }
      ],
      "name": "GovernorNotQueuedProposal",
      "type": "error"
    },
    {
      "inputs": [
        {
          "internalType": "address",
          "name": "account",
          "type": "address"
        }
      ],
      "name": "GovernorOnlyExecutor",
      "type": "error"
    },
    {
      "inputs": [],
      "name": "GovernorQueueNotImplemented",
      "type": "error"
    },
    {
      "inputs": [
        {
          "internalType": "address",
          "name": "proposer",
          "type": "address"
        }
      ],
      "name": "GovernorRestrictedProposer",
      "type": "error"
    },
    {
      "inputs": [
        {
          "internalType": "uint256",
          "name": "proposalId",
          "type": "uint256"
        },
        {
          "internalType": "address",
          "name": "account",
          "type": "address"
        }
      ],
      "name": "GovernorUnableToCancel",
      "type": "error"
    },
    {
      "inputs": [
        {
          "internalType": "uint256",
          "name": "proposalId",
          "type": "uint256"
        },
        {
          "internalType": "enum IGovernor.ProposalState",
          "name": "current",
          "type": "uint8"
        },
        {
          "internalType": "bytes32",
          "name": "expectedStates",
          "type": "bytes32"
        }
      ],
      "name": "GovernorUnexpectedProposalState",
      "type": "error"
    },
    {
      "inputs": [
        {
          "internalType": "address",
          "name": "account",
          "type": "address"
        },
        {
          "internalType": "uint256",
          "name": "currentNonce",
          "type": "uint256"
        }
      ],
      "name": "InvalidAccountNonce",
      "type": "error"
    },
    {
      "inputs": [],
      "name": "InvalidShortString",
      "type": "error"
    },
    {
      "inputs": [
        {
          "internalType": "uint8",
          "name": "bits",
          "type": "uint8"
        },
        {
          "internalType": "uint256",
          "name": "value",
          "type": "uint256"
        }
      ],
      "name": "SafeCastOverflowedUintDowncast",
      "type": "error"
    },
    {
      "inputs": [
        {
          "internalType": "string",
          "name": "str",
          "type": "string"
        }
      ],
      "name": "StringTooLong",
      "type": "error"
    },
    {
      "anonymous": false,
      "inputs": [],
      "name": "EIP712DomainChanged",
      "type": "event"
    },
    {
      "anonymous": false,
      "inputs": [
        {
          "indexed": false,
          "internalType": "uint256",
          "name": "proposalId",
          "type": "uint256"
        }
      ],
      "name": "ProposalCanceled",
      "type": "event"
    },
    {
      "anonymous": false,
      "inputs": [
        {
          "indexed": false,
          "internalType": "uint256",
          "name": "proposalId",
          "type": "uint256"
        },
        {
          "indexed": false,
          "internalType": "address",
          "name": "proposer",
          "type": "address"
        },
        {
          "indexed": false,
          "internalType": "address[]",
          "name": "targets",
          "type": "address[]"
        },
        {
          "indexed": false,
          "internalType": "uint256[]",
          "name": "values",
          "type": "uint256[]"
        },
        {
          "indexed": false,
          "internalType": "string[]",
          "name": "signatures",
          "type": "string[]"
        },
        {
          "indexed": false,
          "internalType": "bytes[]",
          "name": "calldatas",
          "type": "bytes[]"
        },
        {
          "indexed": false,
          "internalType": "uint256",
          "name": "voteStart",
          "type": "uint256"
        },
        {
          "indexed": false,
          "internalType": "uint256",
          "name": "voteEnd",
          "type": "uint256"
        },
        {
          "indexed": false,
          "internalType": "string",
          "name": "description",
          "type": "string"
        }
      ],
      "name": "ProposalCreated",
      "type": "event"
    },
    {
      "anonymous": false,
      "inputs": [
        {
          "indexed": false,
          "internalType": "uint256",
          "name": "proposalId",
          "type": "uint256"
        }
      ],
      "name": "ProposalExecuted",
      "type": "event"
    },
    {
      "anonymous": false,
      "inputs": [
        {
          "indexed": false,
          "internalType": "uint256",
          "name": "proposalId",
          "type": "uint256"
        },
        {
          "indexed": false,
          "internalType": "uint256",
          "name": "etaSeconds",
          "type": "uint256"
        }
      ],
      "name": "ProposalQueued",
      "type": "event"
    },
    {
      "anonymous": false,
      "inputs": [
        {
          "indexed": false,
          "internalType": "uint256",
          "name": "oldProposalThreshold",
          "type": "uint256"
        },
        {
          "indexed": false,
          "internalType": "uint256",
          "name": "newProposalThreshold",
          "type": "uint256"
        }
      ],
      "name": "ProposalThresholdSet",
      "type": "event"
    },
    {
      "anonymous": false,
      "inputs": [
        {
          "indexed": false,
          "internalType": "uint256",
          "name": "oldQuorumNumerator",
          "type": "uint256"
        },
        {
          "indexed": false,
          "internalType": "uint256",
          "name": "newQuorumNumerator",
          "type": "uint256"
        }
      ],
      "name": "QuorumNumeratorUpdated",
      "type": "event"
    },
    {
      "anonymous": false,
      "inputs": [
        {
          "indexed": false,
          "internalType": "address",
          "name": "oldTimelock",
          "type": "address"
        },
        {
          "indexed": false,
          "internalType": "address",
          "name": "newTimelock",
          "type": "address"
        }
      ],
      "name": "TimelockChange",
      "type": "event"
    },
    {
      "anonymous": false,
      "inputs": [
        {
          "indexed": true,
          "internalType": "address",
          "name": "voter",
          "type": "address"
        },
        {
          "indexed": false,
          "internalType": "uint256",
          "name": "proposalId",
          "type": "uint256"
        },
        {
          "indexed": false,
          "internalType": "uint8",
          "name": "support",
          "type": "uint8"
        },
        {
          "indexed": false,
          "internalType": "uint256",
          "name": "weight",
          "type": "uint256"
        },
        {
          "indexed": false,
          "internalType": "string",
          "name": "reason",
          "type": "string"
        }
      ],
      "name": "VoteCast",
      "type": "event"
    },
    {
      "anonymous": false,
      "inputs": [
        {
          "indexed": true,
          "internalType": "address",
          "name": "voter",
          "type": "address"
        },
        {
          "indexed": false,
          "internalType": "uint256",
          "name": "proposalId",
          "type": "uint256"
        },
        {
          "indexed": false,
          "internalType": "uint8",
          "name": "support",
          "type": "uint8"
        },
        {
          "indexed": false,
          "internalType": "uint256",
          "name": "weight",
          "type": "uint256"
        },
        {
          "indexed": false,
          "internalType": "string",
          "name": "reason",
          "type": "string"
        },
        {
          "indexed": false,
          "internalType": "bytes",
          "name": "params",
          "type": "bytes"
        }
      ],
      "name": "VoteCastWithParams",
      "type": "event"
    },
    {
      "anonymous": false,
      "inputs": [
        {
          "indexed": false,
          "internalType": "uint256",
          "name": "oldVotingDelay",
          "type": "uint256"
        },
        {
          "indexed": false,
          "internalType": "uint256",
          "name": "newVotingDelay",
          "type": "uint256"
        }
      ],
      "name": "VotingDelaySet",
      "type": "event"
    },
    {
      "anonymous": false,
      "inputs": [
        {
          "indexed": false,
          "internalType": "uint256",
          "name": "oldVotingPeriod",
          "type": "uint256"
        },
        {
          "indexed": false,
          "internalType": "uint256",
          "name": "newVotingPeriod",
          "type": "uint256"
        }
      ],
      "name": "VotingPeriodSet",
      "type": "event"
    },
    {
      "inputs": [],
      "name": "BALLOT_TYPEHASH",
      "outputs": [
        {
          "internalType": "bytes32",
          "name": "",
          "type": "bytes32"
        }
      ],
      "stateMutability": "view",
      "type": "function"
    },
    {
      "inputs": [],
      "name": "CLOCK_MODE",
      "outputs": [
        {
          "internalType": "string",
          "name": "",
          "type": "string"
        }
      ],
      "stateMutability": "view",
      "type": "function"
    },
    {
      "inputs": [],
      "name": "COUNTING_MODE",
      "outputs": [
        {
          "internalType": "string",
          "name": "",
          "type": "string"
        }
      ],
      "stateMutability": "pure",
      "type": "function"
    },
    {
      "inputs": [],
      "name": "EXTENDED_BALLOT_TYPEHASH",
      "outputs": [
        {
          "internalType": "bytes32",
          "name": "",
          "type": "bytes32"
        }
      ],
      "stateMutability": "view",
      "type": "function"
    },
    {
      "inputs": [
        {
          "internalType": "address[]",
          "name": "targets",
          "type": "address[]"
        },
        {
          "internalType": "uint256[]",
          "name": "values",
          "type": "uint256[]"
        },
        {
          "internalType": "bytes[]",
          "name": "calldatas",
          "type": "bytes[]"
        },
        {
          "internalType": "bytes32",
          "name": "descriptionHash",
          "type": "bytes32"
        }
      ],
      "name": "cancel",
      "outputs": [
        {
          "internalType": "uint256",
          "name": "",
          "type": "uint256"
        }
      ],
      "stateMutability": "nonpayable",
      "type": "function"
    },
    {
      "inputs": [
        {
          "internalType": "uint256",
          "name": "proposalId",
          "type": "uint256"
        },
        {
          "internalType": "uint8",
          "name": "support",
          "type": "uint8"
        }
      ],
      "name": "castVote",
      "outputs": [
        {
          "internalType": "uint256",
          "name": "",
          "type": "uint256"
        }
      ],
      "stateMutability": "nonpayable",
      "type": "function"
    },
    {
      "inputs": [
        {
          "internalType": "uint256",
          "name": "proposalId",
          "type": "uint256"
        },
        {
          "internalType": "uint8",
          "name": "support",
          "type": "uint8"
        },
        {
          "internalType": "address",
          "name": "voter",
          "type": "address"
        },
        {
          "internalType": "bytes",
          "name": "signature",
          "type": "bytes"
        }
      ],
      "name": "castVoteBySig",
      "outputs": [
        {
          "internalType": "uint256",
          "name": "",
          "type": "uint256"
        }
      ],
      "stateMutability": "nonpayable",
      "type": "function"
    },
    {
      "inputs": [
        {
          "internalType": "uint256",
          "name": "proposalId",
          "type": "uint256"
        },
        {
          "internalType": "uint8",
          "name": "support",
          "type": "uint8"
        },
        {
          "internalType": "string",
          "name": "reason",
          "type": "string"
        }
      ],
      "name": "castVoteWithReason",
      "outputs": [
        {
          "internalType": "uint256",
          "name": "",
          "type": "uint256"
        }
      ],
      "stateMutability": "nonpayable",
      "type": "function"
    },
    {
      "inputs": [
        {
          "internalType": "uint256",
          "name": "proposalId",
          "type": "uint256"
        },
        {
          "internalType": "uint8",
          "name": "support",
          "type": "uint8"
        },
        {
          "internalType": "string",
          "name": "reason",
          "type": "string"
        },
        {
          "internalType": "bytes",
          "name": "params",
          "type": "bytes"
        }
      ],
      "name": "castVoteWithReasonAndParams",
      "outputs": [
        {
          "internalType": "uint256",
          "name": "",
          "type": "uint256"
        }
      ],
      "stateMutability": "nonpayable",
      "type": "function"
    },
    {
      "inputs": [
        {
          "internalType": "uint256",
          "name": "proposalId",
          "type": "uint256"
        },
        {
          "internalType": "uint8",
          "name": "support",
          "type": "uint8"
        },
        {
          "internalType": "address",
          "name": "voter",
          "type": "address"
        },
        {
          "internalType": "string",
          "name": "reason",
          "type": "string"
        },
        {
          "internalType": "bytes",
          "name": "params",
          "type": "bytes"
        },
        {
          "internalType": "bytes",
          "name": "signature",
          "type": "bytes"
        }
      ],
      "name": "castVoteWithReasonAndParamsBySig",
      "outputs": [
        {
          "internalType": "uint256",
          "name": "",
          "type": "uint256"
        }
      ],
      "stateMutability": "nonpayable",
      "type": "function"
    },
    {
      "inputs": [],
      "name": "clock",
      "outputs": [
        {
          "internalType": "uint48",
          "name": "",
          "type": "uint48"
        }
      ],
      "stateMutability": "view",
      "type": "function"
    },
    {
      "inputs": [],
      "name": "eip712Domain",
      "outputs": [
        {
          "internalType": "bytes1",
          "name": "fields",
          "type": "bytes1"
        },
        {
          "internalType": "string",
          "name": "name",
          "type": "string"
        },
        {
          "internalType": "string",
          "name": "version",
          "type": "string"
        },
        {
          "internalType": "uint256",
          "name": "chainId",
          "type": "uint256"
        },
        {
          "internalType": "address",
          "name": "verifyingContract",
          "type": "address"
        },
        {
          "internalType": "bytes32",
          "name": "salt",
          "type": "bytes32"
        },
        {
          "internalType": "uint256[]",
          "name": "extensions",
          "type": "uint256[]"
        }
      ],
      "stateMutability": "view",
      "type": "function"
    },
    {
      "inputs": [
        {
          "internalType": "address[]",
          "name": "targets",
          "type": "address[]"
        },
        {
          "internalType": "uint256[]",
          "name": "values",
          "type": "uint256[]"
        },
        {
          "internalType": "bytes[]",
          "name": "calldatas",
          "type": "bytes[]"
        },
        {
          "internalType": "bytes32",
          "name": "descriptionHash",
          "type": "bytes32"
        }
      ],
      "name": "execute",
      "outputs": [
        {
          "internalType": "uint256",
          "name": "",
          "type": "uint256"
        }
      ],
      "stateMutability": "payable",
      "type": "function"
    },
    {
      "inputs": [
        {
          "internalType": "address[]",
          "name": "targets",
          "type": "address[]"
        },
        {
          "internalType": "uint256[]",
          "name": "values",
          "type": "uint256[]"
        },
        {
          "internalType": "bytes[]",
          "name": "calldatas",
          "type": "bytes[]"
        },
        {
          "internalType": "bytes32",
          "name": "descriptionHash",
          "type": "bytes32"
        }
      ],
      "name": "getProposalId",
      "outputs": [
        {
          "internalType": "uint256",
          "name": "",
          "type": "uint256"
        }
      ],
      "stateMutability": "view",
      "type": "function"
    },
    {
      "inputs": [
        {
          "internalType": "address",
          "name": "account",
          "type": "address"
        },
        {
          "internalType": "uint256",
          "name": "blockNumber",
          "type": "uint256"
        }
      ],
      "name": "getVotes",
      "outputs": [
        {
          "internalType": "uint256",
          "name": "",
          "type": "uint256"
        }
      ],
      "stateMutability": "view",
      "type": "function"
    },
    {
      "inputs": [
        {
          "internalType": "address",
          "name": "account",
          "type": "address"
        },
        {
          "internalType": "uint256",
          "name": "timepoint",
          "type": "uint256"
        },
        {
          "internalType": "bytes",
          "name": "params",
          "type": "bytes"
        }
      ],
      "name": "getVotesWithParams",
      "outputs": [
        {
          "internalType": "uint256",
          "name": "",
          "type": "uint256"
        }
      ],
      "stateMutability": "view",
      "type": "function"
    },
    {
      "inputs": [
        {
          "internalType": "uint256",
          "name": "proposalId",
          "type": "uint256"
        },
        {
          "internalType": "address",
          "name": "account",
          "type": "address"
        }
      ],
      "name": "hasVoted",
      "outputs": [
        {
          "internalType": "bool",
          "name": "",
          "type": "bool"
        }
      ],
      "stateMutability": "view",
      "type": "function"
    },
    {
      "inputs": [
        {
          "internalType": "address[]",
          "name": "targets",
          "type": "address[]"
        },
        {
          "internalType": "uint256[]",
          "name": "values",
          "type": "uint256[]"
        },
        {
          "internalType": "bytes[]",
          "name": "calldatas",
          "type": "bytes[]"
        },
        {
          "internalType": "bytes32",
          "name": "descriptionHash",
          "type": "bytes32"
        }
      ],
      "name": "hashProposal",
      "outputs": [
        {
          "internalType": "uint256",
          "name": "",
          "type": "uint256"
        }
      ],
      "stateMutability": "pure",
      "type": "function"
    },
    {
      "inputs": [],
      "name": "name",
      "outputs": [
        {
          "internalType": "string",
          "name": "",
          "type": "string"
        }
      ],
      "stateMutability": "view",
      "type": "function"
    },
    {
      "inputs": [
        {
          "internalType": "address",
          "name": "owner",
          "type": "address"
        }
      ],
      "name": "nonces",
      "outputs": [
        {
          "internalType": "uint256",
          "name": "",
          "type": "uint256"
        }
      ],
      "stateMutability": "view",
      "type": "function"
    },
    {
      "inputs": [
        {
          "internalType": "address",
          "name": "",
          "type": "address"
        },
        {
          "internalType": "address",
          "name": "",
          "type": "address"
        },
        {
          "internalType": "uint256[]",
          "name": "",
          "type": "uint256[]"
        },
        {
          "internalType": "uint256[]",
          "name": "",
          "type": "uint256[]"
        },
        {
          "internalType": "bytes",
          "name": "",
          "type": "bytes"
        }
      ],
      "name": "onERC1155BatchReceived",
      "outputs": [
        {
          "internalType": "bytes4",
          "name": "",
          "type": "bytes4"
        }
      ],
      "stateMutability": "nonpayable",
      "type": "function"
    },
    {
      "inputs": [
        {
          "internalType": "address",
          "name": "",
          "type": "address"
        },
        {
          "internalType": "address",
          "name": "",
          "type": "address"
        },
        {
          "internalType": "uint256",
          "name": "",
          "type": "uint256"
        },
        {
          "internalType": "uint256",
          "name": "",
          "type": "uint256"
        },
        {
          "internalType": "bytes",
          "name": "",
          "type": "bytes"
        }
      ],
      "name": "onERC1155Received",
      "outputs": [
        {
          "internalType": "bytes4",
          "name": "",
          "type": "bytes4"
        }
      ],
      "stateMutability": "nonpayable",
      "type": "function"
    },
    {
      "inputs": [
        {
          "internalType": "address",
          "name": "",
          "type": "address"
        },
        {
          "internalType": "address",
          "name": "",
          "type": "address"
        },
        {
          "internalType": "uint256",
          "name": "",
          "type": "uint256"
        },
        {
          "internalType": "bytes",
          "name": "",
          "type": "bytes"
        }
      ],
      "name": "onERC721Received",
      "outputs": [
        {
          "internalType": "bytes4",
          "name": "",
          "type": "bytes4"
        }
      ],
      "stateMutability": "nonpayable",
      "type": "function"
    },
    {
      "inputs": [
        {
          "internalType": "uint256",
          "name": "proposalId",
          "type": "uint256"
        }
      ],
      "name": "proposalDeadline",
      "outputs": [
        {
          "internalType": "uint256",
          "name": "",
          "type": "uint256"
        }
      ],
      "stateMutability": "view",
      "type": "function"
    },
    {
      "inputs": [
        {
          "internalType": "uint256",
          "name": "proposalId",
          "type": "uint256"
        }
      ],
      "name": "proposalEta",
      "outputs": [
        {
          "internalType": "uint256",
          "name": "",
          "type": "uint256"
        }
      ],
      "stateMutability": "view",
      "type": "function"
    },
    {
      "inputs": [
        {
          "internalType": "uint256",
          "name": "proposalId",
          "type": "uint256"
        }
      ],
      "name": "proposalNeedsQueuing",
      "outputs": [
        {
          "internalType": "bool",
          "name": "",
          "type": "bool"
        }
      ],
      "stateMutability": "view",
      "type": "function"
    },
    {
      "inputs": [
        {
          "internalType": "uint256",
          "name": "proposalId",
          "type": "uint256"
        }
      ],
      "name": "proposalProposer",
      "outputs": [
        {
          "internalType": "address",
          "name": "",
          "type": "address"
        }
      ],
      "stateMutability": "view",
      "type": "function"
    },
    {
      "inputs": [
        {
          "internalType": "uint256",
          "name": "proposalId",
          "type": "uint256"
        }
      ],
      "name": "proposalSnapshot",
      "outputs": [
        {
          "internalType": "uint256",
          "name": "",
          "type": "uint256"
        }
      ],
      "stateMutability": "view",
      "type": "function"
    },
    {
      "inputs": [],
      "name": "proposalThreshold",
      "outputs": [
        {
          "internalType": "uint256",
          "name": "",
          "type": "uint256"
        }
      ],
      "stateMutability": "view",
      "type": "function"
    },
    {
      "inputs": [
        {
          "internalType": "uint256",
          "name": "proposalId",
          "type": "uint256"
        }
      ],
      "name": "proposalVotes",
      "outputs": [
        {
          "internalType": "uint256",
          "name": "againstVotes",
          "type": "uint256"
        },
        {
          "internalType": "uint256",
          "name": "forVotes",
          "type": "uint256"
        },
        {
          "internalType": "uint256",
          "name": "abstainVotes",
          "type": "uint256"
        }
      ],
      "stateMutability": "view",
      "type": "function"
    },
    {
      "inputs": [
        {
          "internalType": "address[]",
          "name": "targets",
          "type": "address[]"
        },
        {
          "internalType": "uint256[]",
          "name": "values",
          "type": "uint256[]"
        },
        {
          "internalType": "bytes[]",
          "name": "calldatas",
          "type": "bytes[]"
        },
        {
          "internalType": "string",
          "name": "description",
          "type": "string"
        }
      ],
      "name": "propose",
      "outputs": [
        {
          "internalType": "uint256",
          "name": "proposalId",
          "type": "uint256"
        }
      ],
      "stateMutability": "nonpayable",
      "type": "function"
    },
    {
      "inputs": [
        {
          "internalType": "address[]",
          "name": "targets",
          "type": "address[]"
        },
        {
          "internalType": "uint256[]",
          "name": "values",
          "type": "uint256[]"
        },
        {
          "internalType": "bytes[]",
          "name": "calldatas",
          "type": "bytes[]"
        },
        {
          "internalType": "bytes32",
          "name": "descriptionHash",
          "type": "bytes32"
        }
      ],
      "name": "queue",
      "outputs": [
        {
          "internalType": "uint256",
          "name": "",
          "type": "uint256"
        }
      ],
      "stateMutability": "nonpayable",
      "type": "function"
    },
    {
      "inputs": [
        {
          "internalType": "uint256",
          "name": "blockNumber",
          "type": "uint256"
        }
      ],
      "name": "quorum",
      "outputs": [
        {
          "internalType": "uint256",
          "name": "",
          "type": "uint256"
        }
      ],
      "stateMutability": "view",
      "type": "function"
    },
    {
      "inputs": [],
      "name": "quorumDenominator",
      "outputs": [
        {
          "internalType": "uint256",
          "name": "",
          "type": "uint256"
        }
      ],
      "stateMutability": "view",
      "type": "function"
    },
    {
      "inputs": [
        {
          "internalType": "uint256",
          "name": "timepoint",
          "type": "uint256"
        }
      ],
      "name": "quorumNumerator",
      "outputs": [
        {
          "internalType": "uint256",
          "name": "",
          "type": "uint256"
        }
      ],
      "stateMutability": "view",
      "type": "function"
    },
    {
      "inputs": [],
      "name": "quorumNumerator",
      "outputs": [
        {
          "internalType": "uint256",
          "name": "",
          "type": "uint256"
        }
      ],
      "stateMutability": "view",
      "type": "function"
    },
    {
      "inputs": [
        {
          "internalType": "address",
          "name": "target",
          "type": "address"
        },
        {
          "internalType": "uint256",
          "name": "value",
          "type": "uint256"
        },
        {
          "internalType": "bytes",
          "name": "data",
          "type": "bytes"
        }
      ],
      "name": "relay",
      "outputs": [],
      "stateMutability": "payable",
      "type": "function"
    },
    {
      "inputs": [
        {
          "internalType": "uint256",
          "name": "newProposalThreshold",
          "type": "uint256"
        }
      ],
      "name": "setProposalThreshold",
      "outputs": [],
      "stateMutability": "nonpayable",
      "type": "function"
    },
    {
      "inputs": [
        {
          "internalType": "uint48",
          "name": "newVotingDelay",
          "type": "uint48"
        }
      ],
      "name": "setVotingDelay",
      "outputs": [],
      "stateMutability": "nonpayable",
      "type": "function"
    },
    {
      "inputs": [
        {
          "internalType": "uint32",
          "name": "newVotingPeriod",
          "type": "uint32"
        }
      ],
      "name": "setVotingPeriod",
      "outputs": [],
      "stateMutability": "nonpayable",
      "type": "function"
    },
    {
      "inputs": [
        {
          "internalType": "uint256",
          "name": "proposalId",
          "type": "uint256"
        }
      ],
      "name": "state",
      "outputs": [
        {
          "internalType": "enum IGovernor.ProposalState",
          "name": "",
          "type": "uint8"
        }
      ],
      "stateMutability": "view",
      "type": "function"
    },
    {
      "inputs": [
        {
          "internalType": "bytes4",
          "name": "interfaceId",
          "type": "bytes4"
        }
      ],
      "name": "supportsInterface",
      "outputs": [
        {
          "internalType": "bool",
          "name": "",
          "type": "bool"
        }
      ],
      "stateMutability": "view",
      "type": "function"
    },
    {
      "inputs": [],
      "name": "timelock",
      "outputs": [
        {
          "internalType": "address",
          "name": "",
          "type": "address"
        }
      ],
      "stateMutability": "view",
      "type": "function"
    },
    {
      "inputs": [],
      "name": "token",
      "outputs": [
        {
          "internalType": "contract IERC5805",
          "name": "",
          "type": "address"
        }
      ],
      "stateMutability": "view",
      "type": "function"
    },
    {
      "inputs": [
        {
          "internalType": "uint256",
          "name": "newQuorumNumerator",
          "type": "uint256"
        }
      ],
      "name": "updateQuorumNumerator",
      "outputs": [],
      "stateMutability": "nonpayable",
      "type": "function"
    },
    {
      "inputs": [
        {
          "internalType": "contract TimelockController",
          "name": "newTimelock",
          "type": "address"
        }
      ],
      "name": "updateTimelock",
      "outputs": [],
      "stateMutability": "nonpayable",
      "type": "function"
    },
    {
      "inputs": [],
      "name": "version",
      "outputs": [
        {
          "internalType": "string",
          "name": "",
          "type": "string"
        }
      ],
      "stateMutability": "view",
      "type": "function"
    },
    {
      "inputs": [],
      "name": "votingDelay",
      "outputs": [
        {
          "internalType": "uint256",
          "name": "",
          "type": "uint256"
        }
      ],
      "stateMutability": "view",
      "type": "function"
    },
    {
      "inputs": [],
      "name": "votingPeriod",
      "outputs": [
        {
          "internalType": "uint256",
          "name": "",
          "type": "uint256"
        }
      ],
      "stateMutability": "view",
      "type": "function"
    },
    {
      "stateMutability": "payable",
      "type": "receive"
    }
  ],
  "bytecode": "0x61018060405234801561001157600080fd5b50604051614fb6380380614fb683398101604081905261003091610735565b8481878686866040518060400160405280600d81526020016c4d79476f7665726e6f7244414f60981b8152508061006b61017460201b60201c565b61007682600061018f565b6101205261008581600161018f565b61014052815160208084019190912060e052815190820120610100524660a05261011260e05161010051604080517f8b73c3c69bb8fe3d512ecc4cf759cc79239f7b179b0ffacaa9a75d522b39400f60208201529081019290925260608201524660808201523060a082015260009060c00160405160208183030381529060405280519060200120905090565b60805250503060c05260036101278282610832565b506101339050836101c2565b61013c82610228565b610145816102ce565b5050506001600160a01b03166101605261015e8161030f565b50610168816103a5565b505050505050506109ab565b6040805180820190915260018152603160f81b602082015290565b60006020835110156101ab576101a48361040e565b90506101bc565b816101b68482610832565b5060ff90505b92915050565b6008546040805165ffffffffffff928316815291831660208301527fc565b045403dc03c2eea82b81a0465edad9e2e7fc4d97e11421c209da93d7a93910160405180910390a16008805465ffffffffffff191665ffffffffffff92909216919091179055565b8063ffffffff166000036102575760405163f1cfbf0560e01b8152600060048201526024015b60405180910390fd5b6008546040805163ffffffff66010000000000009093048316815291831660208301527f7e3f7f0708a84de9203036abaa450dccc85ad5ff52f78c170f3edb55cf5e8828910160405180910390a16008805463ffffffff90921666010000000000000263ffffffff60301b19909216919091179055565b60075460408051918252602082018390527fccb45da8d5717e6c4544694297c4ba5cf151d455c9bb0ed4fc7a38411bc05461910160405180910390a1600755565b60648082111561033c5760405163243e544560e01b8152600481018390526024810182905260440161024e565b600061034661044c565b9050610365610353610466565b61035c856104e1565b600a9190610519565b505060408051828152602081018590527f0553476bf02ef2726e8ce5ced78d63e26e602e4a2257b1f559418e24b4633997910160405180910390a1505050565b600b54604080516001600160a01b03928316815291831660208301527f08f74ea46ef7894f65eabfb5e6e695de773a000b47c529ab559178069b226401910160405180910390a1600b80546001600160a01b0319166001600160a01b0392909216919091179055565b600080829050601f81511115610439578260405163305a27a960e01b815260040161024e91906108f0565b80516104448261093e565b179392505050565b6000610458600a610534565b6001600160d01b0316905090565b60006104726101605190565b6001600160a01b03166391ddadf46040518163ffffffff1660e01b8152600401602060405180830381865afa9250505080156104cb575060408051601f3d908101601f191682019092526104c891810190610962565b60015b6104dc576104d761057f565b905090565b919050565b60006001600160d01b03821115610515576040516306dfcc6560e41b815260d060048201526024810183905260440161024e565b5090565b60008061052785858561058a565b915091505b935093915050565b805460009080156105755761055c8361054e60018461098a565b600091825260209091200190565b54660100000000000090046001600160d01b0316610578565b60005b9392505050565b60006104d7436106ea565b82546000908190801561068c5760006105a88761054e60018561098a565b805490915065ffffffffffff80821691660100000000000090046001600160d01b03169088168211156105ee57604051632520601d60e01b815260040160405180910390fd5b8765ffffffffffff168265ffffffffffff160361062a57825465ffffffffffff1666010000000000006001600160d01b0389160217835561067e565b6040805180820190915265ffffffffffff808a1682526001600160d01b03808a1660208085019182528d54600181018f5560008f815291909120945191519092166601000000000000029216919091179101555b945085935061052c92505050565b50506040805180820190915265ffffffffffff80851682526001600160d01b0380851660208085019182528854600181018a5560008a815291822095519251909316660100000000000002919093161792019190915590508161052c565b600065ffffffffffff821115610515576040516306dfcc6560e41b8152603060048201526024810183905260440161024e565b6001600160a01b038116811461073257600080fd5b50565b60008060008060008060c0878903121561074e57600080fd5b86516107598161071d565b602088015190965061076a8161071d565b6040880151606089015160808a015160a0909a0151989b929a5090989097909650945092505050565b634e487b7160e01b600052604160045260246000fd5b600181811c908216806107bd57607f821691505b6020821081036107dd57634e487b7160e01b600052602260045260246000fd5b50919050565b601f82111561082d57806000526020600020601f840160051c8101602085101561080a5750805b601f840160051c820191505b8181101561082a5760008155600101610816565b50505b505050565b81516001600160401b0381111561084b5761084b610793565b61085f8161085984546107a9565b846107e3565b6020601f821160018114610893576000831561087b5750848201515b600019600385901b1c1916600184901b17845561082a565b600084815260208120601f198516915b828110156108c357878501518255602094850194600190920191016108a3565b50848210156108e15786840151600019600387901b60f8161c191681555b50505050600190811b01905550565b602081526000825180602084015260005b8181101561091e5760208186018101516040868401015201610901565b506000604082850101526040601f19601f83011684010191505092915050565b805160208083015191908110156107dd5760001960209190910360031b1b16919050565b60006020828403121561097457600080fd5b815165ffffffffffff8116811461057857600080fd5b818103818111156101bc57634e487b7160e01b600052601160045260246000fd5b60805160a05160c05160e0516101005161012051610140516101605161458a610a2c600039600081816109ff01528181610e1b0152818161127401528181611c8d0152611f1001526000611c5801526000611c2b015260006125530152600061252b01526000612486015260006124b0015260006124da015261458a6000f3fe6080604052600436106102b25760003560e01c80637ecebe0011610175578063bc197c81116100dc578063deaaa7cc11610095578063ece40cc11161006f578063ece40cc114610990578063f23a6e61146109b0578063f8ce560a146109d0578063fc0c546a146109f057600080fd5b8063deaaa7cc1461091c578063e540d01d14610950578063eb9019d41461097057600080fd5b8063bc197c8114610845578063c01f9e3714610865578063c28bc2fa14610885578063c59057e414610898578063d33219b4146108b8578063dd4e2ba5146108d657600080fd5b8063a7713a701161012e578063a7713a7014610783578063a890c91014610798578063a8f8a668146107b8578063a9a95294146107d8578063ab58fb8e146107f8578063b58131b01461083057600080fd5b80637ecebe00146106a557806384b0196e146106db5780638ff262e31461070357806391ddadf41461072357806397c3d3341461074f5780639a802a6d1461076357600080fd5b806343859632116102195780635b8d0e0d116101d25780635b8d0e0d146105e55780635f398a141461060557806360c4247f1461062557806379051887146106455780637b3c71d3146106655780637d5e81e21461068557600080fd5b806343859632146104e1578063452115d61461052b5780634bf5d7e91461054b578063544ffc9c1461056057806354fd4d501461059b57806356781388146105c557600080fd5b8063160cbed71161026b578063160cbed7146104185780632656227d146104385780632d63f6931461044b5780632fe3e2611461046b5780633932abb11461049f5780633e4f49e6146104b457600080fd5b806301ffc9a7146102ee57806302a251a31461032357806306f3f9e61461034f57806306fdde031461036f578063143489d014610391578063150b7a02146103df57600080fd5b366102e957306102c0610a23565b6001600160a01b0316146102e757604051637485328f60e11b815260040160405180910390fd5b005b600080fd5b3480156102fa57600080fd5b5061030e6103093660046134ba565b610a3c565b60405190151581526020015b60405180910390f35b34801561032f57600080fd5b50600854600160301b900463ffffffff165b60405190815260200161031a565b34801561035b57600080fd5b506102e761036a3660046134e4565b610a4d565b34801561037b57600080fd5b50610384610a61565b60405161031a919061354d565b34801561039d57600080fd5b506103c76103ac3660046134e4565b6000908152600460205260409020546001600160a01b031690565b6040516001600160a01b03909116815260200161031a565b3480156103eb57600080fd5b506103ff6103fa366004613640565b610af3565b6040516001600160e01b0319909116815260200161031a565b34801561042457600080fd5b50610341610433366004613815565b610b36565b610341610446366004613815565b610c05565b34801561045757600080fd5b506103416104663660046134e4565b610d71565b34801561047757600080fd5b506103417f3e83946653575f9a39005e1545185629e92736b7528ab20ca3816f315424a81181565b3480156104ab57600080fd5b50610341610d92565b3480156104c057600080fd5b506104d46104cf3660046134e4565b610da5565b60405161031a91906138e6565b3480156104ed57600080fd5b5061030e6104fc3660046138f4565b60008281526009602090815260408083206001600160a01b038516845260030190915290205460ff1692915050565b34801561053757600080fd5b50610341610546366004613815565b610db0565b34801561055757600080fd5b50610384610e17565b34801561056c57600080fd5b5061058061057b3660046134e4565b610ed9565b6040805193845260208401929092529082015260600161031a565b3480156105a757600080fd5b506040805180820190915260018152603160f81b6020820152610384565b3480156105d157600080fd5b506103416105e0366004613935565b610eff565b3480156105f157600080fd5b506103416106003660046139a9565b610f28565b34801561061157600080fd5b50610341610620366004613a6d565b611087565b34801561063157600080fd5b506103416106403660046134e4565b6110d1565b34801561065157600080fd5b506102e7610660366004613b08565b6110de565b34801561067157600080fd5b50610341610680366004613b25565b6110ef565b34801561069157600080fd5b506103416106a0366004613b7e565b611141565b3480156106b157600080fd5b506103416106c0366004613c42565b6001600160a01b031660009081526002602052604090205490565b3480156106e757600080fd5b506106f0611158565b60405161031a9796959493929190613c9b565b34801561070f57600080fd5b5061034161071e366004613d0b565b61119e565b34801561072f57600080fd5b50610738611270565b60405165ffffffffffff909116815260200161031a565b34801561075b57600080fd5b506064610341565b34801561076f57600080fd5b5061034161077e366004613d5c565b6112f8565b34801561078f57600080fd5b5061034161130f565b3480156107a457600080fd5b506102e76107b3366004613c42565b611329565b3480156107c457600080fd5b506103416107d3366004613815565b61133a565b3480156107e457600080fd5b5061030e6107f33660046134e4565b611348565b34801561080457600080fd5b506103416108133660046134e4565b60009081526004602052604090206001015465ffffffffffff1690565b34801561083c57600080fd5b50610341611351565b34801561085157600080fd5b506103ff610860366004613db4565b61135c565b34801561087157600080fd5b506103416108803660046134e4565b6113a0565b6102e7610893366004613e52565b6113e3565b3480156108a457600080fd5b506103416108b3366004613815565b611463565b3480156108c457600080fd5b50600b546001600160a01b03166103c7565b3480156108e257600080fd5b506040805180820190915260208082527f737570706f72743d627261766f2671756f72756d3d666f722c6162737461696e90820152610384565b34801561092857600080fd5b506103417ff2aad550cf55f045cb27e9c559f9889fdfb6e6cdaa032301d6ea397784ae51d781565b34801561095c57600080fd5b506102e761096b366004613e95565b61149d565b34801561097c57600080fd5b5061034161098b366004613ebb565b6114ae565b34801561099c57600080fd5b506102e76109ab3660046134e4565b6114ba565b3480156109bc57600080fd5b506103ff6109cb366004613ee7565b6114cb565b3480156109dc57600080fd5b506103416109eb3660046134e4565b61150f565b3480156109fc57600080fd5b507f00000000000000000000000000000000000000000000000000000000000000006103c7565b6000610a37600b546001600160a01b031690565b905090565b6000610a478261151a565b92915050565b610a55611585565b610a5e816115ff565b50565b606060038054610a7090613f43565b80601f0160208091040260200160405190810160405280929190818152602001828054610a9c90613f43565b8015610ae95780601f10610abe57610100808354040283529160200191610ae9565b820191906000526020600020905b815481529060010190602001808311610acc57829003601f168201915b5050505050905090565b600030610afe610a23565b6001600160a01b031614610b2557604051637485328f60e11b815260040160405180910390fd5b50630a85bd0160e11b949350505050565b600080610b458686868661133a565b9050610b5a81610b556004611695565b6116b8565b506000610b6a82888888886116f7565b905065ffffffffffff811615610be257600082815260046020908152604091829020600101805465ffffffffffff191665ffffffffffff85169081179091558251858152918201527f9a2e42fd6722813d69113e7d0079d3d940171428df7373df9c7f7617cfda2892910160405180910390a1610bfb565b604051634844252360e11b815260040160405180910390fd5b5095945050505050565b600080610c148686868661133a565b9050610c3481610c246005611695565b610c2e6004611695565b176116b8565b506000818152600460205260409020805460ff60f01b1916600160f01b17905530610c5d610a23565b6001600160a01b031614610ce75760005b8651811015610ce557306001600160a01b0316878281518110610c9357610c93613f7d565b60200260200101516001600160a01b031603610cdd57610cdd858281518110610cbe57610cbe613f7d565b602002602001015180519060200120600561170690919063ffffffff16565b600101610c6e565b505b610cf48187878787611768565b30610cfd610a23565b6001600160a01b031614158015610d2957506005546001600160801b03808216600160801b9092041614155b15610d345760006005555b6040518181527f712ae1383f79ac853f8d882153778e0260ef8f03b504e2866e0593e04d2b291f906020015b60405180910390a195945050505050565b600090815260046020526040902054600160a01b900465ffffffffffff1690565b6000610a3760085465ffffffffffff1690565b6000610a478261177c565b600080610dbf8686868661133a565b905033610dcc82826118bb565b610e0057604051638fe5d8a960e01b8152600481018390526001600160a01b03821660248201526044015b60405180910390fd5b610e0c87878787611902565b979650505050505050565b60607f00000000000000000000000000000000000000000000000000000000000000006001600160a01b0316634bf5d7e96040518163ffffffff1660e01b8152600401600060405180830381865afa925050508015610e9857506040513d6000823e601f3d908101601f19168201604052610e959190810190613f93565b60015b610ed4575060408051808201909152601d81527f6d6f64653d626c6f636b6e756d6265722666726f6d3d64656661756c74000000602082015290565b919050565b6000818152600960205260409020805460018201546002909201549091905b9193909250565b600080339050610f2084828560405180602001604052806000815250611910565b949350505050565b60008061100b876110057f3e83946653575f9a39005e1545185629e92736b7528ab20ca3816f315424a8118c8c8c610f7d8e6001600160a01b0316600090815260026020526040902080546001810190915590565b8d8d604051610f8d929190614000565b60405180910390208c80519060200120604051602001610fea9796959493929190968752602087019590955260ff9390931660408601526001600160a01b03919091166060850152608084015260a083015260c082015260e00190565b60405160208183030381529060405280519060200120611933565b85611960565b905080611036576040516394ab6c0760e01b81526001600160a01b0388166004820152602401610df7565b61107a89888a89898080601f0160208091040260200160405190810160405280939291908181526020018383808284376000920191909152508b92506119d4915050565b9998505050505050505050565b600080339050610e0c87828888888080601f0160208091040260200160405190810160405280939291908181526020018383808284376000920191909152508a92506119d4915050565b6000610a47600a83611ab6565b6110e6611585565b610a5e81611b05565b60008033905061113786828787878080601f01602080910402602001604051908101604052809392919081815260200183838082843760009201919091525061191092505050565b9695505050505050565b600061114f85858585611b6b565b95945050505050565b60006060806000806000606061116c611c24565b611174611c51565b60408051600080825260208201909252600f60f81b9b939a50919850469750309650945092509050565b60008061122a846110057ff2aad550cf55f045cb27e9c559f9889fdfb6e6cdaa032301d6ea397784ae51d78989896111f38b6001600160a01b0316600090815260026020526040902080546001810190915590565b60408051602081019690965285019390935260ff90911660608401526001600160a01b0316608083015260a082015260c001610fea565b905080611255576040516394ab6c0760e01b81526001600160a01b0385166004820152602401610df7565b61113786858760405180602001604052806000815250611910565b60007f00000000000000000000000000000000000000000000000000000000000000006001600160a01b03166391ddadf46040518163ffffffff1660e01b8152600401602060405180830381865afa9250505080156112ec575060408051601f3d908101601f191682019092526112e991810190614010565b60015b610ed457610a37611c7e565b6000611305848484611c89565b90505b9392505050565b600061131b600a611d1f565b6001600160d01b0316905090565b611331611585565b610a5e81611d66565b600061114f85858585611463565b60006001610a47565b6000610a3760075490565b600030611367610a23565b6001600160a01b03161461138e57604051637485328f60e11b815260040160405180910390fd5b5063bc197c8160e01b95945050505050565b6000818152600460205260408120546113d590600160d01b810463ffffffff1690600160a01b900465ffffffffffff16614043565b65ffffffffffff1692915050565b6113eb611585565b600080856001600160a01b0316858585604051611409929190614000565b60006040518083038185875af1925050503d8060008114611446576040519150601f19603f3d011682016040523d82523d6000602084013e61144b565b606091505b509150915061145a8282611dcf565b50505050505050565b60008484848460405160200161147c94939291906140f8565b60408051601f19818403018152919052805160209091012095945050505050565b6114a5611585565b610a5e81611deb565b60006113088383611e89565b6114c2611585565b610a5e81611eaa565b6000306114d6610a23565b6001600160a01b0316146114fd57604051637485328f60e11b815260040160405180910390fd5b5063f23a6e6160e01b95945050505050565b6000610a4782611eeb565b60006001600160e01b031982166366defe7760e11b148061154b57506001600160e01b031982166332a2ad4360e11b145b8061156657506001600160e01b03198216630271189760e51b145b80610a4757506301ffc9a760e01b6001600160e01b0319831614610a47565b3361158e610a23565b6001600160a01b0316146115b7576040516347096e4760e01b8152336004820152602401610df7565b306115c0610a23565b6001600160a01b0316146115fd57600080366040516115e0929190614000565b604051809103902090505b806115f66005611f8b565b036115eb57505b565b60648082111561162c5760405163243e544560e01b81526004810183905260248101829052604401610df7565b600061163661130f565b9050611655611643611270565b61164c85611ffa565b600a9190612032565b505060408051828152602081018590527f0553476bf02ef2726e8ce5ced78d63e26e602e4a2257b1f559418e24b4633997910160405180910390a1505050565b60008160078111156116a9576116a96138ae565b600160ff919091161b92915050565b6000806116c484610da5565b90506000836116d283611695565b1603611308578381846040516331b75e4d60e01b8152600401610df793929190614143565b6000611137868686868661204d565b81546001600160801b03600160801b8204811691811660018301909116036117325761173260416121f8565b6001600160801b03808216600090815260018086016020526040909120939093558354919092018216600160801b029116179055565b611775858585858561220a565b5050505050565b600080611788836122a0565b9050600581600781111561179e5761179e6138ae565b146117a95792915050565b6000838152600c60205260409081902054600b549151632c258a9f60e11b81526004810182905290916001600160a01b03169063584b153e90602401602060405180830381865afa158015611802573d6000803e3d6000fd5b505050506040513d601f19601f820116820180604052508101906118269190614165565b15611835575060059392505050565b600b54604051632ab0f52960e01b8152600481018390526001600160a01b0390911690632ab0f52990602401602060405180830381865afa15801561187e573d6000803e3d6000fd5b505050506040513d601f19601f820116820180604052508101906118a29190614165565b156118b1575060079392505050565b5060029392505050565b6000806118c784610da5565b60078111156118d8576118d86138ae565b148015611308575050600091825260046020526040909120546001600160a01b0391821691161490565b600061114f858585856123da565b600061114f8585858561192e60408051602081019091526000815290565b6119d4565b6000610a47611940612479565b8360405161190160f01b8152600281019290925260228201526042902090565b6000836001600160a01b03163b6000036119c25760008061198185856125a4565b509092509050600081600381111561199b5761199b6138ae565b1480156119b95750856001600160a01b0316826001600160a01b0316145b92505050611308565b6119cd8484846125f1565b9050611308565b60006119e486610b556001611695565b5060006119fa866119f489610d71565b85611c89565b90506000611a0b88888885886126cc565b90508351600003611a6257866001600160a01b03167fb8e138887d0aa13bab447e82de9d5c1777041ecd21ca36ba824ff1e6c07ddda489888489604051611a559493929190614187565b60405180910390a2610e0c565b866001600160a01b03167fe2babfbac5889a709b63bb7f598b324e08bc5a4fb9ec647fb3cbc9ec07eb87128988848989604051611aa39594939291906141af565b60405180910390a2979650505050505050565b6000806000611ac4856127cf565b9250925050838265ffffffffffff161115611af157611aec611ae58561282b565b869061285e565b611af3565b805b6001600160d01b031695945050505050565b6008546040805165ffffffffffff928316815291831660208301527fc565b045403dc03c2eea82b81a0465edad9e2e7fc4d97e11421c209da93d7a93910160405180910390a16008805465ffffffffffff191665ffffffffffff92909216919091179055565b600033611b788184612905565b611ba05760405163d9b3955760e01b81526001600160a01b0382166004820152602401610df7565b6000611baa611351565b90508015611c17576000611bd9836001611bc2611270565b611bcc91906141e9565b65ffffffffffff166114ae565b905081811015611c1557604051636121770b60e11b81526001600160a01b03841660048201526024810182905260448101839052606401610df7565b505b610e0c878787878661298c565b6060610a377f00000000000000000000000000000000000000000000000000000000000000006000612bac565b6060610a377f00000000000000000000000000000000000000000000000000000000000000006001612bac565b6000610a374361282b565b60007f0000000000000000000000000000000000000000000000000000000000000000604051630748d63560e31b81526001600160a01b038681166004830152602482018690529190911690633a46b1a890604401602060405180830381865afa158015611cfb573d6000803e3d6000fd5b505050506040513d601f19601f820116820180604052508101906113059190614207565b80546000908015611d5d57611d4783611d39600184614220565b600091825260209091200190565b54600160301b90046001600160d01b0316611308565b60009392505050565b600b54604080516001600160a01b03928316815291831660208301527f08f74ea46ef7894f65eabfb5e6e695de773a000b47c529ab559178069b226401910160405180910390a1600b80546001600160a01b0319166001600160a01b0392909216919091179055565b606082611de457611ddf82612c57565b610a47565b5080610a47565b8063ffffffff16600003611e155760405163f1cfbf0560e01b815260006004820152602401610df7565b6008546040805163ffffffff600160301b9093048316815291831660208301527f7e3f7f0708a84de9203036abaa450dccc85ad5ff52f78c170f3edb55cf5e8828910160405180910390a16008805463ffffffff909216600160301b0269ffffffff00000000000019909216919091179055565b60006113088383611ea560408051602081019091526000815290565b611c89565b60075460408051918252602082018390527fccb45da8d5717e6c4544694297c4ba5cf151d455c9bb0ed4fc7a38411bc05461910160405180910390a1600755565b604051632394e7a360e21b815260048101829052600090610a47906001600160a01b037f00000000000000000000000000000000000000000000000000000000000000001690638e539e8c90602401602060405180830381865afa158015611f57573d6000803e3d6000fd5b505050506040513d601f19601f82011682018060405250810190611f7b9190614207565b611f84846110d1565b6064612c80565b80546000906001600160801b0380821691600160801b9004168103611fb457611fb460316121f8565b6001600160801b038181166000908152600185810160205260408220805492905585546fffffffffffffffffffffffffffffffff19169301909116919091179092555090565b60006001600160d01b0382111561202e576040516306dfcc6560e41b815260d0600482015260248101839052604401610df7565b5090565b600080612040858585612d35565b915091505b935093915050565b600080600b60009054906101000a90046001600160a01b03166001600160a01b031663f27a0c926040518163ffffffff1660e01b8152600401602060405180830381865afa1580156120a3573d6000803e3d6000fd5b505050506040513d601f19601f820116820180604052508101906120c79190614207565b905060003060601b6bffffffffffffffffffffffff19168418600b5460405163b1c5f42760e01b81529192506001600160a01b03169063b1c5f4279061211a908a908a908a906000908890600401614233565b602060405180830381865afa158015612137573d6000803e3d6000fd5b505050506040513d601f19601f8201168201806040525081019061215b9190614207565b6000898152600c602052604080822092909255600b5491516308f2a0bb60e41b81526001600160a01b0390921691638f2a0bb0916121a6918b918b918b919088908a90600401614281565b600060405180830381600087803b1580156121c057600080fd5b505af11580156121d4573d6000803e3d6000fd5b505050506121ec82426121e791906142d9565b61282b565b98975050505050505050565b634e487b71600052806020526024601cfd5b600b546001600160a01b031663e38335e53486868660003060601b6bffffffffffffffffffffffff191688186040518763ffffffff1660e01b8152600401612256959493929190614233565b6000604051808303818588803b15801561226f57600080fd5b505af1158015612283573d6000803e3d6000fd5b50505060009687525050600c602052505060408320929092555050565b6000818152600460205260408120805460ff600160f01b8204811691600160f81b90041681156122d557506007949350505050565b80156122e657506002949350505050565b60006122f186610d71565b90508060000361231757604051636ad0607560e01b815260048101879052602401610df7565b6000612321611270565b65ffffffffffff16905080821061233f575060009695505050505050565b600061234a886113a0565b905081811061236157506001979650505050505050565b61236a88612e89565b158061238a57506000888152600960205260409020805460019091015411155b1561239d57506003979650505050505050565b60008881526004602052604090206001015465ffffffffffff166000036123cc57506004979650505050505050565b506005979650505050505050565b6000806123e986868686612ec0565b6000818152600c60205260409020549091508015610bfb57600b5460405163c4d252f560e01b8152600481018390526001600160a01b039091169063c4d252f590602401600060405180830381600087803b15801561244757600080fd5b505af115801561245b573d6000803e3d6000fd5b5050506000838152600c602052604081205550509050949350505050565b6000306001600160a01b037f0000000000000000000000000000000000000000000000000000000000000000161480156124d257507f000000000000000000000000000000000000000000000000000000000000000046145b156124fc57507f000000000000000000000000000000000000000000000000000000000000000090565b610a37604080517f8b73c3c69bb8fe3d512ecc4cf759cc79239f7b179b0ffacaa9a75d522b39400f60208201527f0000000000000000000000000000000000000000000000000000000000000000918101919091527f000000000000000000000000000000000000000000000000000000000000000060608201524660808201523060a082015260009060c00160405160208183030381529060405280519060200120905090565b600080600083516041036125de5760208401516040850151606086015160001a6125d088828585612f71565b9550955095505050506125ea565b50508151600091506002905b9250925092565b6000806000856001600160a01b031685856040516024016126139291906142ec565b60408051601f198184030181529181526020820180516001600160e01b0316630b135d3f60e11b179052516126489190614305565b600060405180830381855afa9150503d8060008114612683576040519150601f19603f3d011682016040523d82523d6000602084013e612688565b606091505b509150915081801561269c57506020815110155b801561113757508051630b135d3f60e11b906126c19083016020908101908401614207565b149695505050505050565b60008581526009602090815260408083206001600160a01b03881684526003810190925282205460ff161561271f576040516371c6af4960e01b81526001600160a01b0387166004820152602401610df7565b6001600160a01b03861660009081526003820160205260409020805460ff1916600117905560ff851661276b578381600001600082825461276091906142d9565b909155506127c49050565b60001960ff86160161278b578381600101600082825461276091906142d9565b60011960ff8616016127ab578381600201600082825461276091906142d9565b6040516303599be160e11b815260040160405180910390fd5b509195945050505050565b8054600090819081908082036127f057600080600093509350935050610ef8565b600061280186611d39600185614220565b546001955065ffffffffffff81169450600160301b90046001600160d01b03169250610ef8915050565b600065ffffffffffff82111561202e576040516306dfcc6560e41b81526030600482015260248101839052604401610df7565b8154600090818160058111156128bd57600061287984613040565b6128839085614220565b60008881526020902090915081015465ffffffffffff90811690871610156128ad578091506128bb565b6128b88160016142d9565b92505b505b60006128cb87878585613199565b905080156128f8576128e287611d39600184614220565b54600160301b90046001600160d01b0316610e0c565b6000979650505050505050565b8051600090603481101561291d576001915050610a47565b60131981840101516001600160b01b03198116692370726f706f7365723d60b01b1461294e57600192505050610a47565b60008061295f86602a8603866131fb565b91509150811580610e0c5750866001600160a01b0316816001600160a01b03161494505050505092915050565b60006129a1868686868051906020012061133a565b9050845186511415806129b657508351865114155b806129c057508551155b156129f557855184518651604051630447b05d60e41b8152600481019390935260248301919091526044820152606401610df7565b600081815260046020526040902054600160a01b900465ffffffffffff1615612a405780612a2282610da5565b6040516331b75e4d60e01b8152610df7929190600090600401614143565b6000612a4a610d92565b612a52611270565b65ffffffffffff16612a6491906142d9565b90506000612a7f60085463ffffffff600160301b9091041690565b600084815260046020526040902080546001600160a01b0319166001600160a01b038716178155909150612ab28361282b565b815465ffffffffffff91909116600160a01b0265ffffffffffff60a01b19909116178155612adf826132aa565b815463ffffffff91909116600160d01b0263ffffffff60d01b1990911617815588517f7d84a6263ae0d98d3329bd7b46bb4e8d6f98cd35a7adb45c274c8b7fd5ebd5e090859087908c908c906001600160401b03811115612b4257612b42613575565b604051908082528060200260200182016040528015612b7557816020015b6060815260200190600190039081612b605790505b508c89612b828a826142d9565b8e604051612b9899989796959493929190614321565b60405180910390a150505095945050505050565b606060ff8314612bc657612bbf836132db565b9050610a47565b818054612bd290613f43565b80601f0160208091040260200160405190810160405280929190818152602001828054612bfe90613f43565b8015612c4b5780601f10612c2057610100808354040283529160200191612c4b565b820191906000526020600020905b815481529060010190602001808311612c2e57829003601f168201915b50505050509050610a47565b805115612c675780518082602001fd5b60405163d6bda27560e01b815260040160405180910390fd5b6000806000612c8f868661331a565b9150915081600003612cb457838181612caa57612caa6143fe565b0492505050611308565b818411612ccb57612ccb60038515026011186121f8565b6000848688096000868103871696879004966002600389028118808a02820302808a02820302808a02820302808a02820302808a02820302808a02909103029181900381900460010185841190960395909502919093039390930492909217029150509392505050565b825460009081908015612e2e576000612d5387611d39600185614220565b805490915065ffffffffffff80821691600160301b90046001600160d01b0316908816821115612d9657604051632520601d60e01b815260040160405180910390fd5b8765ffffffffffff168265ffffffffffff1603612dcf57825465ffffffffffff16600160301b6001600160d01b03891602178355612e20565b6040805180820190915265ffffffffffff808a1682526001600160d01b03808a1660208085019182528d54600181018f5560008f81529190912094519151909216600160301b029216919091179101555b945085935061204592505050565b50506040805180820190915265ffffffffffff80851682526001600160d01b0380851660208085019182528854600181018a5560008a815291822095519251909316600160301b029190931617920191909155905081612045565b600081815260096020526040812060028101546001820154612eab91906142d9565b612eb76109eb85610d71565b11159392505050565b600080612ecf8686868661133a565b9050612f1d81612edf6007611695565b612ee96006611695565b612ef36002611695565b6001612f00600782614414565b612f0b90600261450c565b612f159190614220565b1818186116b8565b506000818152600460205260409081902080546001600160f81b0316600160f81b179055517f789cf55be980739dad1d0699b93b58e806b51c9d96619bfa8fe0a28abaa7b30c90610d609083815260200190565b600080807f7fffffffffffffffffffffffffffffff5d576e7357a4501ddfe92f46681b20a0841115612fac5750600091506003905082613036565b604080516000808252602082018084528a905260ff891692820192909252606081018790526080810186905260019060a0016020604051602081039080840390855afa158015613000573d6000803e3d6000fd5b5050604051601f1901519150506001600160a01b03811661302c57506000925060019150829050613036565b9250600091508190505b9450945094915050565b60006001821161304e575090565b816001600160801b82106130675760809190911c9060401b5b6801000000000000000082106130825760409190911c9060201b5b64010000000082106130995760209190911c9060101b5b6201000082106130ae5760109190911c9060081b5b61010082106130c25760089190911c9060041b5b601082106130d55760049190911c9060021b5b600482106130e15760011b5b600302600190811c908185816130f9576130f96143fe565b048201901c90506001818581613111576131116143fe565b048201901c90506001818581613129576131296143fe565b048201901c90506001818581613141576131416143fe565b048201901c90506001818581613159576131596143fe565b048201901c90506001818581613171576131716143fe565b048201901c905061319081858161318a5761318a6143fe565b04821190565b90039392505050565b60005b818310156131f35760006131b08484613338565b60008781526020902090915065ffffffffffff86169082015465ffffffffffff1611156131df578092506131ed565b6131ea8160016142d9565b93505b5061319c565b509392505050565b600080845183118061320c57508284115b1561321c57506000905080612045565b60006132298560016142d9565b84118015613251575061060f60f31b6132458787016020015190565b6001600160f01b031916145b90506000613262821515600261451b565b61326d9060286142d9565b90508061327a8787614220565b0361329c5760008061328d898989613353565b90965094506120459350505050565b600080935093505050612045565b600063ffffffff82111561202e576040516306dfcc6560e41b81526020600482015260248101839052604401610df7565b606060006132e883613419565b604080516020808252818301909252919250600091906020820181803683375050509182525060208101929092525090565b60008060001983850993909202808410938190039390930393915050565b60006133476002848418614532565b611308908484166142d9565b60008084816133638660016142d9565b8511801561338b575061060f60f31b61337f8388016020015190565b6001600160f01b031916145b9050600061339c821515600261451b565b90506000806133ab838a6142d9565b90505b878110156134085760006133cd6133c88784016020015190565b613441565b9050600f8160ff1611156133ed5760008097509750505050505050612045565b6133f860108461451b565b60ff9091160191506001016133ae565b506001999098509650505050505050565b600060ff8216601f811115610a4757604051632cd44ac360e21b815260040160405180910390fd5b600060f882901c602f8111801561345b5750603a8160ff16105b1561346957602f1901610a47565b60608160ff1611801561347f575060678160ff16105b1561348d5760561901610a47565b60408160ff161180156134a3575060478160ff16105b156134b15760361901610a47565b5060ff92915050565b6000602082840312156134cc57600080fd5b81356001600160e01b03198116811461130857600080fd5b6000602082840312156134f657600080fd5b5035919050565b60005b83811015613518578181015183820152602001613500565b50506000910152565b600081518084526135398160208601602086016134fd565b601f01601f19169290920160200192915050565b6020815260006113086020830184613521565b6001600160a01b0381168114610a5e57600080fd5b634e487b7160e01b600052604160045260246000fd5b604051601f8201601f191681016001600160401b03811182821017156135b3576135b3613575565b604052919050565b60006001600160401b038211156135d4576135d4613575565b50601f01601f191660200190565b60006135f56135f0846135bb565b61358b565b905082815283838301111561360957600080fd5b828260208301376000602084830101529392505050565b600082601f83011261363157600080fd5b611308838335602085016135e2565b6000806000806080858703121561365657600080fd5b843561366181613560565b9350602085013561367181613560565b92506040850135915060608501356001600160401b0381111561369357600080fd5b61369f87828801613620565b91505092959194509250565b60006001600160401b038211156136c4576136c4613575565b5060051b60200190565b600082601f8301126136df57600080fd5b81356136ed6135f0826136ab565b8082825260208201915060208360051b86010192508583111561370f57600080fd5b602085015b83811015610bfb57803561372781613560565b835260209283019201613714565b600082601f83011261374657600080fd5b81356137546135f0826136ab565b8082825260208201915060208360051b86010192508583111561377657600080fd5b602085015b83811015610bfb57803583526020928301920161377b565b600082601f8301126137a457600080fd5b81356137b26135f0826136ab565b8082825260208201915060208360051b8601019250858311156137d457600080fd5b602085015b83811015610bfb5780356001600160401b038111156137f757600080fd5b613806886020838a0101613620565b845250602092830192016137d9565b6000806000806080858703121561382b57600080fd5b84356001600160401b0381111561384157600080fd5b61384d878288016136ce565b94505060208501356001600160401b0381111561386957600080fd5b61387587828801613735565b93505060408501356001600160401b0381111561389157600080fd5b61389d87828801613793565b949793965093946060013593505050565b634e487b7160e01b600052602160045260246000fd5b600881106138e257634e487b7160e01b600052602160045260246000fd5b9052565b60208101610a4782846138c4565b6000806040838503121561390757600080fd5b82359150602083013561391981613560565b809150509250929050565b803560ff81168114610ed457600080fd5b6000806040838503121561394857600080fd5b8235915061395860208401613924565b90509250929050565b60008083601f84011261397357600080fd5b5081356001600160401b0381111561398a57600080fd5b6020830191508360208285010111156139a257600080fd5b9250929050565b600080600080600080600060c0888a0312156139c457600080fd5b873596506139d460208901613924565b955060408801356139e481613560565b945060608801356001600160401b038111156139ff57600080fd5b613a0b8a828b01613961565b90955093505060808801356001600160401b03811115613a2a57600080fd5b613a368a828b01613620565b92505060a08801356001600160401b03811115613a5257600080fd5b613a5e8a828b01613620565b91505092959891949750929550565b600080600080600060808688031215613a8557600080fd5b85359450613a9560208701613924565b935060408601356001600160401b03811115613ab057600080fd5b613abc88828901613961565b90945092505060608601356001600160401b03811115613adb57600080fd5b613ae788828901613620565b9150509295509295909350565b65ffffffffffff81168114610a5e57600080fd5b600060208284031215613b1a57600080fd5b813561130881613af4565b60008060008060608587031215613b3b57600080fd5b84359350613b4b60208601613924565b925060408501356001600160401b03811115613b6657600080fd5b613b7287828801613961565b95989497509550505050565b60008060008060808587031215613b9457600080fd5b84356001600160401b03811115613baa57600080fd5b613bb6878288016136ce565b94505060208501356001600160401b03811115613bd257600080fd5b613bde87828801613735565b93505060408501356001600160401b03811115613bfa57600080fd5b613c0687828801613793565b92505060608501356001600160401b03811115613c2257600080fd5b8501601f81018713613c3357600080fd5b61369f878235602084016135e2565b600060208284031215613c5457600080fd5b813561130881613560565b600081518084526020840193506020830160005b82811015613c91578151865260209586019590910190600101613c73565b5093949350505050565b60ff60f81b8816815260e060208201526000613cba60e0830189613521565b8281036040840152613ccc8189613521565b606084018890526001600160a01b038716608085015260a0840186905283810360c08501529050613cfd8185613c5f565b9a9950505050505050505050565b60008060008060808587031215613d2157600080fd5b84359350613d3160208601613924565b92506040850135613d4181613560565b915060608501356001600160401b0381111561369357600080fd5b600080600060608486031215613d7157600080fd5b8335613d7c81613560565b92506020840135915060408401356001600160401b03811115613d9e57600080fd5b613daa86828701613620565b9150509250925092565b600080600080600060a08688031215613dcc57600080fd5b8535613dd781613560565b94506020860135613de781613560565b935060408601356001600160401b03811115613e0257600080fd5b613e0e88828901613735565b93505060608601356001600160401b03811115613e2a57600080fd5b613e3688828901613735565b92505060808601356001600160401b03811115613adb57600080fd5b60008060008060608587031215613e6857600080fd5b8435613e7381613560565b93506020850135925060408501356001600160401b03811115613b6657600080fd5b600060208284031215613ea757600080fd5b813563ffffffff8116811461130857600080fd5b60008060408385031215613ece57600080fd5b8235613ed981613560565b946020939093013593505050565b600080600080600060a08688031215613eff57600080fd5b8535613f0a81613560565b94506020860135613f1a81613560565b9350604086013592506060860135915060808601356001600160401b03811115613adb57600080fd5b600181811c90821680613f5757607f821691505b602082108103613f7757634e487b7160e01b600052602260045260246000fd5b50919050565b634e487b7160e01b600052603260045260246000fd5b600060208284031215613fa557600080fd5b81516001600160401b03811115613fbb57600080fd5b8201601f81018413613fcc57600080fd5b8051613fda6135f0826135bb565b818152856020838501011115613fef57600080fd5b61114f8260208301602086016134fd565b8183823760009101908152919050565b60006020828403121561402257600080fd5b815161130881613af4565b634e487b7160e01b600052601160045260246000fd5b65ffffffffffff8181168382160190811115610a4757610a4761402d565b600081518084526020840193506020830160005b82811015613c915781516001600160a01b0316865260209586019590910190600101614075565b600082825180855260208501945060208160051b8301016020850160005b838110156140ec57601f198584030188526140d6838351613521565b60209889019890935091909101906001016140ba565b50909695505050505050565b60808152600061410b6080830187614061565b828103602084015261411d8187613c5f565b90508281036040840152614131818661409c565b91505082606083015295945050505050565b8381526060810161415760208301856138c4565b826040830152949350505050565b60006020828403121561417757600080fd5b8151801515811461130857600080fd5b84815260ff841660208201528260408201526080606082015260006111376080830184613521565b85815260ff8516602082015283604082015260a0606082015260006141d760a0830185613521565b82810360808401526121ec8185613521565b65ffffffffffff8281168282160390811115610a4757610a4761402d565b60006020828403121561421957600080fd5b5051919050565b81810381811115610a4757610a4761402d565b60a08152600061424660a0830188614061565b82810360208401526142588188613c5f565b9050828103604084015261426c818761409c565b60608401959095525050608001529392505050565b60c08152600061429460c0830189614061565b82810360208401526142a68189613c5f565b905082810360408401526142ba818861409c565b60608401969096525050608081019290925260a0909101529392505050565b80820180821115610a4757610a4761402d565b8281526040602082015260006113056040830184613521565b600082516143178184602087016134fd565b9190910192915050565b8981526001600160a01b03891660208201526101206040820181905260009061434c9083018a614061565b828103606084015261435e818a613c5f565b9050828103608084015280885180835260208301915060208160051b84010160208b0160005b838110156143b657601f198684030185526143a0838351613521565b6020958601959093509190910190600101614384565b505085810360a08701526143ca818b61409c565b93505050508560c08401528460e08401528281036101008401526143ee8185613521565b9c9b505050505050505050505050565b634e487b7160e01b600052601260045260246000fd5b60ff8181168382160190811115610a4757610a4761402d565b6001815b60018411156120455780850481111561444c5761444c61402d565b600184161561445a57908102905b60019390931c928002614431565b60008261447757506001610a47565b8161448457506000610a47565b816001811461449a57600281146144a4576144c0565b6001915050610a47565b60ff8411156144b5576144b561402d565b50506001821b610a47565b5060208310610133831016604e8410600b84101617156144e3575081810a610a47565b6144f0600019848461442d565b80600019048211156145045761450461402d565b029392505050565b600061130860ff841683614468565b8082028115828204841417610a4757610a4761402d565b60008261454f57634e487b7160e01b600052601260045260246000fd5b50049056fea26469706673582212208aef2f90e53859a746743d92ab94bfdaef8a0fddaf80812b7f4ef494116e7ca064736f6c634300081c0033",
  "linkReferences": {},
  "deployedLinkReferences": {}
}